:020000040000FA
:06000000006AD2EF01F0DE
:020008001200E4
:080018001200066E1CC0EAFF95
:100020001A50120FE96E1850EF121AC0E9FFEF14C0
:100030000EA0181810E0066607D00C040DE30A0E97
:1000400018EC01F00C5008D00628E86804E0062CF3
:1000500002D00D5001D00F1E0F32CFEF01F0E9504A
:10006000096E8098809A809A9298929A929AF00E4D
:100070009216095000B221D03A0E036EFC0E26EC07
:1000800001F0330E086E30D8100E036E680E26ECA9
:1000900001F02AD8640E25EC01F026D8220E086E55
:1000A00023D8280E09D80C0E07D8010E05D8060E45
:1000B00003D80082095001D00080086E00A00BD048
:1000C000809A03080FE30ED8070E036ED00E26ECBD
:1000D00001F0D88012000080FE08D8B4CFEF01F004
:1000E000808A00D0083A00A000908088F00E801628
:1000F00008500F0B80128098083A00B0F5D7640EB4
:1001000025EC01F0D8801200000915E00A6E02C04B
:10011000E9FF03C0EAFF026A036A0ABE07D0EE5095
:10012000026E0AA208D0EF50036E05D007EC01F072
:10013000EF14D8A4022ACFEF01F01CC0EAFF1AC0C6
:10014000E9FF04000DD8FDE216D8080E056E14D89C
:1001500007D80432052EFBD70FD80450CFEF01F09B
:10016000120EE9261850EF121AC0E9FFEF1401B47D
:100170001818FF0F1200018C0134060BAA0FF66E3F
:10018000F76A010EF722F86A0900F550036E0800BD
:10019000F55001AC26EF01F0019CD8900332E83015
:1001A000D8900332E83026EF01F001900330005779
:1001B0000CF4019E0B50D8B4018E050E0A6E270E6A
:1001C000056E100E0CD8030E056EE80E08D8056AF1
:1001D000640E05D8056A0A0E02D8065008D0046ECF
:1001E0000750036E0650026E93EC01F00250026E4F
:1001F0000A4E019E0B5003E00A5CD8B01200025078
:10020000D8A4019E01BE1200300FC9EF01F0010E0B
:100210000AB0E8440AB2E8440AB2E8440AB4E8384A
:100220001200F86A800EA66E0900F550CFEF01F0BB
:10023000056A046EE86A0406055AD8A0CFEF01F0FB
:10024000030E036EE40E02D8F5D7036AF50F026EB3
:10025000FE0E04E300D004000226FDE200000226A8
:100260000306F9E202A002D000D0000012000A6EDC
:1002700007EC01F0026A036A0AA6026E0AB6036E70
:100280000250CFEF01F072EC01F003D0056A6AEC86
:1002900001F004E00550036E0450026E025012009B
:1002A000D89002360336FF0FFBE20250CFEF01F089
:1002B000D89003320232FF0FFBE20250CFEF01F081
:1002C000046E020E14D0036A056A046E030E0FD08A
:1002D000036A056A046E010E0AD0046E060E07D08A
:1002E000036A056A046E040E02D0046E050E0A6EDF
:1002F0000550035C02E10450025C040ED8B0010E0C
:10030000D8B4020E0A14D8A4FF0ECFEF01F0E866AD
:10031000FF0E0214D8A4FF0ECFEF01F00210D8A4F4
:10032000FF0ECFEF01F0076A066A100E086E033465
:10033000063607360450065E0550075A05E204509B
:10034000062605500722D89002360336082EEFD72E
:100350000250CFEF01F004500802F3CF06F0F4CFC3
:1003600007F005500902F3CF02F0F4CF03F00802C2
:10037000F3500726F4500222E86A032204500902CF
:10038000F3500726F4500222E86A03220650CFEF0A
:1003900001F0E96EFB6A1350FA6E1250F96E00011B
:1003A00004001200F28E04D0F2BE12007BEF42F085
:1003B0007F0EE96E0F0EEA6EED6AE950EA10FCE17D
:1003C000EF6A0101050E306F0001010EC26E0F0EC3
:1003D000C16E3F0EC06E070EB46E8169AA6AAB6A29
:1003E000D66AC40ED56EF29ACF6ACE6A310ECD6E41
:1003F0009D909E90040ECA6EBD6A926AB10E936E75
:10040000500E946E040E816E600E826E1F821E92DC
:10041000616AE80E806FD20EA96E29EC26F0A8CF93
:1004200019F213EF02F0756A0101296B286B256B35
:10043000246B156B1E94136B0A0E2C6F0201046B58
:10044000056B066B076B086B096B010E3A6E0001BA
:10045000E3EC4DF0320EECDE5FEC4EF01E0EE8DE0B
:10046000040E3A6EE3EC4DF01E0EE2DE6F6A0101FF
:10047000066B076B646A3E6A0201146B156B006BB6
:10048000016B0C6B0D6B026B036B0E6B0F6B010141
:10049000266B276B1E960001866B0400800E865D1E
:1004A000D8B077EF02F0D8908635E96EEA6AEA367E
:1004B000000EE926040EEA22EF6AEC6AD89086352F
:1004C000E96EEA6AEA36000EE926050EEA22EF6ACC
:1004D000EC6AD8908635E96EEA6AEA36000EE926BB
:1004E000060EEA22EF6AEC6A862BD8A0D6D71E94B5
:1004F000586A596A0101086B096B0001ACEC04F001
:100500005FEC4EF047EC45F069C0CBFF68C0BEFF22
:1005100051B0828051A0829083C082F066C065F0A5
:1005200085EC2AF0640E26240101046F000E2720BA
:10053000056F640E7C24246E256A2536819C939C6D
:10054000336A346A356A506A2F6B800EF26EF28815
:10055000F19CF292F29A0400020119510008000184
:10056000D8A4B6EF02F094EC2CF022D704001FA21E
:10057000EAEF02F0E86A81A8E868146EE86A81AAE6
:10058000E868166E14C002F01650C1DE166E176EC3
:10059000040016501710D8B4DAEF02F0040081BE40
:1005A000D7EF02F094EC2CF003D7DAEF02F0EFEC87
:1005B0002CF0FED6040081B8E3EF02F0070E7D6E4A
:1005C0001F92BAEF48F0040081BAEAEF02F01F92DE
:1005D00056EF51F004001FA24BEF03F08282949279
:1005E000818C939CFE0E30EC00F0010E30EC00F09C
:1005F000FE0E30EC00F0800E30EC00F0200E30ECFF
:1006000000F0430E30EC00F04F0E30EC00F04D0ED9
:1006100030EC00F0420E30EC00F0410E30EC00F017
:10062000540E30EC00F0200E30EC00F0FE0E30ECFA
:1006300000F0C00E30EC00F0200E30EC00F0540E54
:1006400030EC00F02E0E30EC00F0410E30EC00F0FB
:100650002E0E30EC00F0470E30EC00F02E0E30EC99
:1006600000F0200E30EC00F0010E056E900E19EC3B
:1006700001F081829392010E056E900E19EC01F04B
:1006800081929392010E056E900E19EC01F0819CFF
:10069000939C829294927D6A1F92FC6A04007D5022
:1006A0000308D8B491EF4EF0E86A48B2E868146ED7
:1006B00083510008D8A4E868FF0A166E14C002F03F
:1006C000165025DE166E176E040016501710D8B49B
:1006D00076EF03F004004AAC72EF03F0B7EC4DF094
:1006E00074EF03F070EC4DF078EF03F070EC4DF028
:1006F000010E056EF40E19EC01F066EF05F0E86AE4
:1007000048B2E868146E83510008D8A4E868FF0A6C
:10071000166E14C002F0165087EC01F0166E176EBC
:10072000040016501710D8B49AEF03F0B7EC4DF050
:100730009CEF03F070EC4DF0010E056EF40E19EC19
:1007400001F0040082AC1BEF48F070EF05F08292DC
:100750009492E86A48B2E868146E83510008D8A4FD
:10076000E868FF0A166E14C002F0165087EC01F01C
:10077000166E176E040016501710D8B4CCEF03F0A5
:1007800004004AACC8EF03F0B7EC4DF0CAEF03F039
:1007900070EC4DF0CEEF03F070EC4DF0030E056EF3
:1007A000E80E19EC01F01F92FC6A66EF05F026ECEA
:1007B0000DF0020EA96E33C2A8FF2DEC26F00F0E2D
:1007C00018EC01F03CEC0CF0010EA96E32C2A8FF4F
:1007D0002DEC26F00F0E18EC01F0FE0E30EC00F0C0
:1007E000010E30EC00F0FE0E30EC00F0800E30EC2C
:1007F00000F0420E30EC00F0610E30EC00F0740EB0
:1008000030EC00F0740E30EC00F0650E30EC00F0CF
:10081000720E30EC00F0790E30EC00F004002D5038
:100820000008D8A426EF04F0FE0E30EC00F0C00E55
:1008300030EC00F04E0E30EC00F0690E30EC00F0C1
:100840004D0E30EC00F0480E30EC00F004002D505E
:100850000108D8A43EEF04F0FE0E30EC00F0C00E0C
:1008600030EC00F04C0E30EC00F0690E30EC00F093
:10087000500E30EC00F06F0E30EC00F004002D5004
:100880000208D8A456EF04F0FE0E30EC00F0C00EC3
:1008900030EC00F0360E30EC00F0780E30EC00F06A
:1008A000410E30EC00F0410E30EC00F0C80E18ECB8
:1008B00001F0810E1A6E0F0E1C6E100E186E0E6A6D
:1008C0000A0E0C6E0A0E0D6E010E0F6E33500DECFB
:1008D00000F0336ED8B095EF04F0810E1A6E0F0E53
:1008E0001C6E200E186E0E6A0A0E0C6E0A0E0D6E2D
:1008F000010E0F6E35500DEC00F0356ED8B095EF4F
:1009000004F0810E1A6E0F0E1C6E800E186E0E6AA9
:100910000C680A0E0D6E010E0F6E34500DEC00F0D7
:10092000346ED8B09EEF04F0C4D72D2A0400030E15
:100930002D5CD8A09DEF04F02D6A4FD72DC036F264
:10094000050EA96E36C2A8FF2DEC26F00F0E18EC8E
:1009500001F01F9211EF02F0AA6A576A0400290EF3
:10096000575CD8B0C3EF04F057C0A9FF29EC26F0BC
:100970005750310FE96E020EEA6AEA22A8CFEFFF64
:10098000572AD8A0EBD731C293F032C283F08351FB
:100990000008D8A4E868FF0A146E83510208D8A49E
:1009A000E868FF0A166E14C002F016508EEC01F0D3
:1009B000166E176E040016501710D8B4E3EF04F04B
:1009C000616AE5EF04F0010E616E33C266F034C275
:1009D00052F035C24EF036C22DF038C269F039C23D
:1009E00076F03AC278F03BC26AF054EC47F06BC044
:1009F00079F03CC24CF03DC24DF03EC246F03FC2E1
:100A000039F040C245F041C232F042C286F099EC62
:100A100047F043C26DF044C251F045C26AF054EC55
:100A200047F06BC068F046C238F047C286F0BDECB4
:100A300047F048C272F049C22CF04AC27CF04BC267
:100A400048F04CC249F04DC24FF04EC27BF04FC24D
:100A50003DF050C28BF051C25BF052C292F053C2D3
:100A600091F054C273F055C25CF056C22AF057C2DE
:100A700074F058C24AF059C27AF05BC062F00400C8
:100A800048A25DEF05F00400010E835DD8A04DEF94
:100A900005F0010E836F5DEF05F092C086F0BDECAE
:100AA00047F091C04DF0010E466EC80E396E456A92
:100AB000010E6D6E626A49923D6A0400465000085C
:100AC000D8A465EF05F0010E466E12008292949252
:100AD0000400010E7B5CD8A070EF05F079EC4BF0C0
:100AE000FC6A04007D500308D8B491EF4EF052EC3C
:100AF0004CF0D4EC01F004009EA083EF05F0D4ECA0
:100B000001F056EC26F0D4EC01F004007D5003080F
:100B1000D8B491EF4EF0D4EC01F0040081AE75EF43
:100B200008F0D4EC01F0040081AAE9EF09F0D4EC5C
:100B300001F0810E1A6E0F0E1C6E100E186E0E6AEA
:100B40000C680A0E0D6E010E0F6E34500DEC00F0A5
:100B5000346ED8B0B4EF05F0D4EC01F001011C6B99
:100B60000001D4EC01F0C5D7D4EC01F0F0EC4CF06E
:100B7000D4EC01F004002F500108D8B4BAD7D4EC5B
:100B800001F0FE0E30EC00F0010E30EC00F0D4EC81
:100B900001F024C002F025C003F0056A640E65EC84
:100BA00001F0D8A4DCEF05F0D4EC01F0286A296A42
:100BB000D4EC01F0E6EF05F0D4EC01F0640E245C17
:100BC000286E000E2558296ED4EC01F0D4EC01F00B
:100BD000FE0E30EC00F0800E30EC00F0410E30ECF8
:100BE00000F0720E30EC00F06D0E30EC00F0720E82
:100BF00030EC00F0200E30EC00F0D4EC01F00400FA
:100C000049A214EF06F0D4EC01F0030E0B6E28C0DD
:100C100006F029C007F05E0E126E136AD9EC00F0E0
:100C2000D4EC01F021EF06F0D4EC01F04F0E30ECE3
:100C300000F0460E30EC00F0460E30EC00F0D4EC44
:100C400001F0D4EC01F0FE0E30EC00F0C00E30EC00
:100C500000F04D0E30EC00F0610E30EC00F0670E4D
:100C600030EC00F0730E30EC00F0200E30EC00F0B1
:100C7000030E0B6E63C006F0076A5E0E126E136AF7
:100C8000D9EC00F0D4EC01F004009EA09BEF06F03C
:100C9000D4EC01F056EC26F0D4EC01F004007550D1
:100CA0000008D8A49BEF06F0D4EC01F0040049A2A0
:100CB0009BEF06F0D4EC01F024C002F025C003F055
:100CC000056A640E65EC01F0D8A46FEF06F0D4EC71
:100CD00001F0286A296AD4EC01F079EF06F0D4EC2F
:100CE00001F0640E245C286E000E2558296ED4ECA9
:100CF00001F0D4EC01F0FE0E30EC00F0800E30EC90
:100D000000F0410E30EC00F0720E30EC00F06D0E91
:100D100030EC00F0720E30EC00F0200E30EC00F001
:100D2000030E0B6E28C006F029C007F05E0E126E8F
:100D3000136AD9EC00F0D4EC01F0040081AED0D6F7
:100D4000D4EC01F0040081AAE9EF09F0D4EC01F041
:100D5000810E1A6E0F0E1C6E100E186E0E6A0C6845
:100D60000A0E0D6E010E0F6E34500DEC00F0346E55
:100D7000D8B0C6EF06F0D4EC01F004007D500308B3
:100D8000D8B491EF4EF0D4EC01F07CD7D4EC01F064
:100D9000F0EC4CF0D4EC01F004002F500108D8B472
:100DA000EED6D4EC01F0FE0E30EC00F0010E30EC8B
:100DB00000F0D4EC01F0FE0E30EC00F0800E30ECD0
:100DC00000F0420E30EC00F0610E30EC00F0740EDA
:100DD00030EC00F0740E30EC00F03A0E30EC00F025
:100DE000200E30EC00F0D4EC01F0020E0B6E16C1B8
:100DF00006F0076A5E0E126E136AD9EC00F0D4ECAE
:100E000001F0FE0E30EC00F0C00E30EC00F0540E9D
:100E100030EC00F02B0E30EC00F0030E0B6E28C10E
:100E200006F0076A5E0E126E136AD9EC00F03A0EF5
:100E300030EC00F0020E0B6E29C106F0076A5E0E60
:100E4000126E136AD9EC00F0D4EC01F004009EA0FD
:100E500081EF07F0D4EC01F056EC26F0D4EC01F071
:100E6000040075500008D8A481EF07F0D4EC01F01D
:100E7000FE0E30EC00F0800E30EC00F0420E30EC54
:100E800000F0610E30EC00F0740E30EC00F0740EE7
:100E900030EC00F03A0E30EC00F0200E30EC00F0B8
:100EA000D4EC01F0020E0B6E16C106F0076A5E0E5E
:100EB000126E136AD9EC00F0D4EC01F0FE0E30ECA7
:100EC00000F0C00E30EC00F0540E30EC00F02B0EB1
:100ED00030EC00F0030E0B6E28C106F0076A5E0EC0
:100EE000126E136AD9EC00F03A0E30EC00F0020EEC
:100EF0000B6E29C106F0076A5E0E126E136AD9ECFA
:100F000000F0D4EC01F0040081AE70EF05F0D4ECF9
:100F100001F0040081AAE9EF09F0D4EC01F0810EA0
:100F20001A6E0F0E1C6E100E186E0E6A0C680A0EEA
:100F30000D6E010E0F6E34500DEC00F0346ED8B013
:100F4000ADEF07F0D4EC01F004007D500308D8B4F5
:100F500091EF4EF0D4EC01F077D7D4EC01F0F0EC47
:100F60004CF0D4EC01F004002F500108D8B419D78C
:100F7000D4EC01F0FE0E30EC00F0010E30EC00F08D
:100F8000D4EC01F0040062501A08D8A4ECEF07F08A
:100F9000D4EC01F0FE0E30EC00F0800E30EC00F0EE
:100FA000520E30EC00F0650E30EC00F0730E30ECB9
:100FB00000F0700E30EC00F0200E30EC00F0550E1A
:100FC00030EC00F04E0E30EC00F04C0E30EC00F047
:100FD000D4EC01F00FEF08F0D4EC01F0FE0E30EC91
:100FE00000F0800E30EC00F0520E30EC00F0650E98
:100FF00030EC00F0730E30EC00F0700E30EC00F0CE
:10100000200E30EC00F0030E0B6E62C006F0076A93
:101010005E0E126E136AD9EC00F0D4EC01F0D4EC41
:1010200001F0FE0E30EC00F0C00E30EC00F0460E89
:1010300030EC00F06C0E30EC00F0610E30EC00F0A3
:10104000670E30EC00F0200E30EC00F0030E0B6E5B
:1010500026C106F0076A5E0E126E136AD9EC00F024
:10106000D4EC01F004009EA03AEF08F0D4EC01F0BB
:1010700056EC26F0D4EC01F0040081AE70EF05F0E0
:10108000D4EC01F0040081AAE9EF09F0D4EC01F0FE
:10109000810E1A6E0F0E1C6E100E186E0E6A0C6802
:1010A0000A0E0D6E010E0F6E34500DEC00F0346E12
:1010B000D8B066EF08F0D4EC01F004007D500308CE
:1010C000D8B491EF4EF0D4EC01F0CAD7D4EC01F0D3
:1010D000F0EC4CF0D4EC01F004002F500108D8B42F
:1010E00047D7D4EC01F070EF05F0D4EC01F0829218
:1010F0009492D4EC01F00400010E6F5CD8B089EF3B
:1011000008F0D4EC01F09DEC4DF0D4EC01F0C3EF0D
:1011100009F0D4EC01F004009EA093EF08F0D4ECA9
:1011200001F056EC26F0D4EC01F00101062B000E84
:1011300007230001D4EC01F0040038A2CAEF08F044
:10114000D4EC01F079C0BEFFD4EC01F08290D4EC75
:1011500001F078C02BF0D4EC01F0E4EC45F0D4ECD5
:1011600001F0050E18EC01F0D4EC01F068C0BEFFF0
:10117000D4EC01F051B0828051A08290D4EC01F007
:101180004DC02BF0D4EC01F0E4EC45F0D4EC01F0D0
:10119000D4EF08F0D4EC01F04DC02BF0D4EC01F00A
:1011A000E4EC45F0D4EC01F0D4EC01F0040038A0FC
:1011B000E0EF08F0D4EC01F081829392D4EC01F0DE
:1011C000D4EC01F0040076500008D8A405EF09F033
:1011D000D4EC01F0110E226E236AD4EC01F0220E41
:1011E000206E216AD4EC01F0020E3A6ED4EC01F0CC
:1011F000E3EC4DF0D4EC01F0190E18EC01F0D4EC56
:1012000001F003EC4EF0D4EC01F0D4EC01F004005A
:1012100076500108D8A42CEF09F0D4EC01F0F90EB7
:10122000226E010E236ED4EC01F0040E206E020E2D
:10123000216ED4EC01F0020E3A6ED4EC01F0E3EC36
:101240004DF0D4EC01F0190E18EC01F0D4EC01F0E3
:1012500003EC4EF0D4EC01F0D4EC01F00400765035
:101260000208D8A453EF09F0D4EC01F02D0E226E41
:10127000020E236ED4EC01F0380E206E020E216EA9
:10128000D4EC01F0020E3A6ED4EC01F0E3EC4DF038
:10129000D4EC01F0190E18EC01F0D4EC01F003ECE1
:1012A0004EF0D4EC01F0D4EC01F081929392D4ECA6
:1012B00001F00400FF0E6F5CD8B068EF09F0D4ECC9
:1012C00001F06F06D4EC01F0DBEC4CF0D4EC01F053
:1012D000D4EC01F0010E406E04000B0E405CD8B05F
:1012E0007FEF09F0D4EC01F03BC041F0D4EC01F009
:1012F00049EC4DF0D4EC01F0402AD8A0EDD7D4EC65
:1013000001F004006F500008D8B4C3EF09F0D4EC2A
:1013100001F0040045500108D8A4A4EF09F0D4EC72
:1013200001F001011C2B0001D4EC01F004000101CB
:101330001C51325C0001D8B4C3EF09F0D4EC01F0C9
:1013400079EF05F0D4EC01F0D4EC01F0455002083F
:10135000D8A4E868FF0A146EE86A84A6E868166EE6
:1013600014C002F016508EEC01F0166E176E0400D9
:1013700016501710D8B4C3EF09F0D4EC01F079EF90
:1013800005F0D4EC01F0D4EC01F004009EA0CDEF08
:1013900009F0D4EC01F056EC26F0D4EC01F0010E8B
:1013A0008D6F0400C90E8D5DD8B0E0EF09F0D4EC6C
:1013B00001F04FEC26F0D4EC01F08D2BD8A0F1D742
:1013C000D4EC01F0040081AEDED7D4EC01F079EF6B
:1013D00005F0D4EC01F004006F50465CD8B46BEF1C
:1013E0000BF0D4EC01F010C102F011C103F0056A5A
:1013F000000E60EC01F0D8A46BEF0BF0D4EC01F020
:101400006F5001011027E86A11230001D4EC01F0AC
:101410006F6AD4EC01F004006D500008D8B4E3EF1B
:101420000AF0D4EC01F0FE0E30EC00F0010E30ECCE
:1014300000F0D4EC01F0040048B642EF0AF0D4EC1E
:1014400001F0FE0E30EC00F0800E30EC00F0410EAA
:1014500030EC00F06D0E30EC00F06D0E30EC00F072
:101460006F0E30EC00F0040E0B6E10C106F011C1CF
:1014700007F05E0E126E136AD9EC00F0D4EC01F0A6
:1014800061EF0AF0D4EC01F0FE0E30EC00F0800EBB
:1014900030EC00F0200E30EC00F0520E30EC00F09A
:1014A000650E30EC00F06C0E30EC00F06F0E30EC9E
:1014B00000F0610E30EC00F0640E30EC00F0D4EC83
:1014C00001F0D4EC01F0310E226E236AD4EC01F06D
:1014D0003C0E206E216AD4EC01F0020E3A6ED4EC80
:1014E00001F0E3EC4DF0D4EC01F0190E18EC01F032
:1014F000D4EC01F003EC4EF0D4EC01F00101640EE9
:101500002F6F0001D4EC01F001010C0E2E6F0001D1
:10151000D4EC01F0FE0E30EC00F0C00E30EC00F028
:10152000D4EC01F0010E406E04004C0E405CD8B0CB
:10153000AFEF0AF0D4EC01F06DC041F0D4EC01F053
:1015400049EC4DF0D4EC01F004007D500308D8B410
:1015500091EF4EF0D4EC01F0402AD8A0E5D7D4ECBE
:1015600001F004009EA0B9EF0AF0D4EC01F056ECB3
:1015700026F0D4EC01F001012F070001D4EC01F0BA
:1015800001012E070001D4EC01F0040001012E51ED
:1015900000080001D8A4DAEF0AF0D4EC01F0FF0E45
:1015A00030EC00F0D4EC01F001010C0E2E6F0001C4
:1015B000D4EC01F0D4EC01F00400010E01012F5D28
:1015C0000001D8B0ADD7D4EC01F010C102F011C1C8
:1015D00003F0465046EC01F06F6ED4EC01F06F5012
:1015E0000101105FD8A011070001D4EC01F010C177
:1015F00002F011C103F046C004F0056A93EC01F05B
:10160000146E03C015F0630E026E036A15C005F078
:10161000145047EC01F0636ED4EC01F0040048A6CE
:1016200024EF0BF0D4EC01F0630E636ED4EC01F008
:101630000101E70E106F030E116F0001D4EC01F0F1
:1016400046C06FF0D4EC01F0D4EC01F00400765009
:101650000208D8B467EF0BF0D4EC01F00400765028
:101660000008D8A440EF0BF0D4EC01F03E0E226E3F
:10167000236AD4EC01F04F0E206E216AD4EC01F005
:10168000D4EC01F0040076500108D8A456EF0BF01A
:10169000D4EC01F0060E226E020E236ED4EC01F0A3
:1016A000110E206E020E216ED4EC01F0D4EC01F08C
:1016B000020E3A6ED4EC01F0E3EC4DF0D4EC01F004
:1016C000190E18EC01F0D4EC01F003EC4EF0D4EC60
:1016D00001F070EF05F0D4EC01F0FA0E416ED4EC9D
:1016E00001F049EC4DF0D4EC01F070EF05F0FE0E86
:1016F00030EC00F0010E30EC00F0FE0E30EC00F0AB
:10170000800E30EC00F0410E30EC00F0750E30EC45
:1017100000F0740E30EC00F06F0E30EC00F0520E62
:1017200030EC00F0650E30EC00F0730E30EC00F0A1
:10173000700E30EC00F004002C500008D8A4BBEF71
:101740000BF0FE0E30EC00F0C00E30EC00F04D0E51
:1017500030EC00F0610E30EC00F06E0E30EC00F07A
:10176000750E30EC00F0610E30EC00F06C0E30ECD9
:1017700000F0E3EF0BF0FE0E30EC00F0C40E30ECA6
:1017800000F0530E30EC00F0650E30EC00F0630E0C
:1017900030EC00F02CC008F0096A050E046E056AF2
:1017A000ABEC01F0866FFE0E30EC00F0C00E30ECBA
:1017B00000F0030E0B6E86C006F0076A5E0E126E16
:1017C000136AD9EC00F0C80E18EC01F0810E1A6E05
:1017D0000F0E1C6E100E186E0E6A0A0E0C6E0A0E9C
:1017E0000D6E010E0F6E33500DEC00F0336ED8B05D
:1017F00022EF0CF0810E1A6E0F0E1C6E200E186E6A
:101800000E6A0A0E0C6E0A0E0D6E010E0F6E33502C
:101810000DEC00F0336ED8B02AEF0CF0810E1A6E8A
:101820000F0E1C6E800E186E0E6A0C680A0E0D6E7E
:10183000010E0F6E34500DEC00F0346ED8B037EF5F
:101840000CF0C4D72C2A0400250E2C5CD8B035EF40
:101850000CF04DD704002C500008D8A433EF0CF046
:10186000240E2C6E44D72C0642D72C6A40D72CC0AD
:1018700049F2C4EC46F01200010E576E556A030E91
:10188000546E010E566E040048A25EEF0CF0010E7D
:10189000546E5750310FE96E020EEA6AEA22EFCF1A
:1018A00014F00400020E145CD8A05EEF0CF0575048
:1018B000310FE96E020EEA6AEA22EF6AFE0E30ECA0
:1018C00000F0010E30EC00F0FE0E30EC00F0800E67
:1018D00030EC00F0540E30EC00F0650E30EC00F00F
:1018E000610E30EC00F06D0E30EC00F0490E30EC83
:1018F00000F0440E30EC00F05750310FE96E020E4C
:10190000EA6AEA22EFCF82F0FE0E30EC00F0C00E61
:1019100030EC00F00CEC2AF0C80E18EC01F0810E4F
:101920001A6E0F0E1C6E100E186E0E6A0C680A0EE0
:101930000D6E010E0F6E35500DEC00F0356ED8B007
:10194000C9EF0CF0810E1A6E0F0E1C6E200E186E71
:101950000E6A0C680A0E0D6E010E0F6E34500DECFF
:1019600000F0346ED8B0EDEF0CF0810E1A6E0F0E51
:101970001C6E800E186E0E6A0C680A0E0D6E010E3B
:101980000F6E33500DEC00F0336ED8B025EF0DF034
:10199000C6D75750310FE96E020EEA6AEA22EFCF3E
:1019A00014F014505624146E156A15365750310F22
:1019B000E96E020EEA6AEA2214C0EFFF5750310FB7
:1019C000E96E020EEA6AEA22EFCF14F00400145026
:1019D000545CD8A01CEF0DF08FD75750310FE96E33
:1019E000020EEA6AEA22EFCF14F004001450555CAC
:1019F000D8A405EF0DF05750310FE96E020EEA6AD8
:101A0000EA2254C0EFFF1BEF0DF05750310FE96E83
:101A1000020EEA6AEA22EFCF14F05650145C146EFC
:101A2000156AD8A015065750310FE96E020EEA6A02
:101A3000EA2214C0EFFF60D75750310FE96E020E53
:101A4000EA6AEA2255C0EFFF57D71200020E576E1E
:101A5000556A310E546E010E566EFE0E30EC00F0DB
:101A6000010E30EC00F0FE0E30EC00F0800E30EC99
:101A700000F0500E30EC00F06C0E30EC00F0610E17
:101A800030EC00F0790E30EC00F0650E30EC00F038
:101A9000720E30EC00F0490E30EC00F0440E30ECE9
:101AA00000F0C80E18EC01F0040081A8FAD7C80EA7
:101AB00018EC01F0FE0E30EC00F0C00E30EC00F03F
:101AC000030E0B6E5750310FE96E020EEA6AEA22DE
:101AD000EFCF14F014C006F0076A5E0E126E136AA0
:101AE000D9EC00F05750310FE96E020EEA6AEA2293
:101AF000EFCF65F0FE0E30EC00F0C30E30EC00F0DE
:101B00002AEC2BF0C80E18EC01F0810E1A6E0F0EA5
:101B10001C6E100E186E0E6A0A0E0C6E0A0E0D6EFA
:101B2000010E0F6E33500DEC00F0336ED8B0C1EFE4
:101B30000DF0810E1A6E0F0E1C6E200E186E0E6ABE
:101B40000A0E0C6E0A0E0D6E010E0F6E33500DEC68
:101B500000F0336ED8B0E5EF0DF0810E1A6E0F0E67
:101B60001C6E800E186E0E6A0C680A0E0D6E010E49
:101B70000F6E34500DEC00F0346ED8B01CEF0EF048
:101B8000C4D75750310FE96E020EEA6AEA22EFCF4E
:101B900014F014505624146E156A15365750310F30
:101BA000E96E020EEA6AEA2214C0EFFF5750310FC5
:101BB000E96E020EEA6AEA22EFCF14F00400145034
:101BC000545CD8A013EF0EF075D75750310FE96E63
:101BD000020EEA6AEA22EFCF14F004001450555CBA
:101BE000D8A4FCEF0DF05750310FE96E020EEA6AEF
:101BF000EA2254C0EFFF5ED75750310FE96E020E54
:101C0000EA6AEA22EFCF14F05650145C146E156A9B
:101C1000D8A015065750310FE96E020EEA6AEA2283
:101C200014C0EFFF47D75750310FE96E020EEA6A32
:101C3000EA2255C0EFFF3ED71200FE0E30EC00F056
:101C4000010E30EC00F0FE0E30EC00F0800E30ECB7
:101C500000F0530E30EC00F06F0E30EC00F0750E1B
:101C600030EC00F06E0E30EC00F0640E30EC00F062
:101C7000730E30EC00F0040076500008D8A45FEF3B
:101C80000EF0FE0E30EC00F0C00E30EC00F04D0E09
:101C900030EC00F0690E30EC00F06C0E30EC00F02F
:101CA0002D0E30EC00F0530E30EC00F0690E30ECED
:101CB00000F06D0E30EC00F0200E30EC00F004006F
:101CC00076500108D8A483EF0EF0FE0E30EC00F041
:101CD000C00E30EC00F0530E30EC00F0630E30EC30
:101CE00000F0690E30EC00F02D0E30EC00F0460EE6
:101CF00030EC00F0690E30EC00F0200E30EC00F01B
:101D0000200E30EC00F0040076500208D8A4A7EFB3
:101D10000EF0FE0E30EC00F0C00E30EC00F0530E72
:101D200030EC00F0690E30EC00F06C0E30EC00F09E
:101D3000650E30EC00F06E0E30EC00F0630E30EC0F
:101D400000F0650E30EC00F0720E30EC00F0C80EC2
:101D500018EC01F0810E1A6E0F0E1C6E100E186E2C
:101D60000E6A0C680A0E0D6E010E0F6E33500DECEC
:101D700000F0336ED8B0D1EF0EF0810E1A6E0F0E58
:101D80001C6E800E186E0E6A0C680A0E0D6E010E27
:101D90000F6E34500DEC00F0346ED8B0DCEF0EF066
:101DA000D9D7762A040076500308D8A4D9EF0EF0CC
:101DB000766A76C039F25FD7C4EC46F01200FE0EA8
:101DC00030EC00F0010E30EC00F0FE0E30EC00F0D4
:101DD000800E30EC00F0460E30EC00F0720E30EC6D
:101DE00000F06E0E30EC00F0640E30EC00F0460EA9
:101DF00030EC00F0690E30EC00F0720E30EC00F0C8
:101E0000650E30EC00F048B41F8648A41F96B1EC74
:101E100020F01FB648841FA64894C4EC46F0120078
:101E2000FE0E30EC00F0010E30EC00F0FE0E30EC57
:101E300000F0800E30EC00F0480E30EC00F0690E3F
:101E400030EC00F0740E30EC00F0460E30EC00F098
:101E50006C0E30EC00F0610E30EC00F0730E30ECE4
:101E600000F0680E30EC00F038B61F8638A61F96DA
:101E7000B1EC20F01FB638861FA63896C4EC46F0A9
:101E80001200FE0E30EC00F0010E30EC00F0FE0E01
:101E900030EC00F0800E30EC00F0420E30EC00F040
:101EA0006F0E30EC00F0640E30EC00F0790E30EC88
:101EB00000F0410E30EC00F0720E30EC00F06D0ED0
:101EC00030EC00F0720E30EC00F049B21F8649A2EF
:101ED0001F96B1EC20F01FB649821FA64992C4ECB0
:101EE00046F01200FE0E30EC00F0010E30EC00F077
:101EF000FE0E30EC00F0800E30EC00F0530E30ECB3
:101F000000F0520E30EC00F0200E30EC00F04B0EE2
:101F100030EC00F0690E30EC00F06C0E30EC00F0AC
:101F20006C0E30EC00F038B21F8638A21F96B1EC70
:101F300020F01FB638821FA63892C4EC46F012007B
:101F4000FE0E30EC00F0010E30EC00F0FE0E30EC36
:101F500000F0800E30EC00F0550E30EC00F06E0E0C
:101F600030EC00F06C0E30EC00F0200E30EC00F0A5
:101F7000410E30EC00F06D0E30EC00F06D0E30ECE8
:101F800000F06F0E30EC00F048B61F8648A61F9692
:101F900009EC21F01FB648861FA64896C4EC46F00F
:101FA0001200FE0E30EC00F0010E30EC00F01C0EC2
:101FB000576E556A170E546E010E566EFE0E30ECBB
:101FC00000F0800E30EC00F0480E30EC00F0690EAE
:101FD00030EC00F0740E30EC00F0440E30EC00F009
:101FE000650E30EC00F06C0E30EC00F0610E30EC61
:101FF00000F0790E30EC00F0FE0E30EC00F0C00E78
:1020000030EC00F004004F500008D8A41FEF10F08F
:102010002E0E30EC00F0300E30EC00F0300E30ECD4
:1020200000F0200E30EC00F0530E30EC00F0650EA6
:1020300030EC00F0630E30EC00F092EF10F0040092
:102040004F500108D8A43CEF10F02E0E30EC00F0F9
:10205000320E30EC00F0350E30EC00F0200E30EC9B
:1020600000F0530E30EC00F0650E30EC00F0630E23
:1020700030EC00F092EF10F004004F500208D8A4AA
:1020800059EF10F02E0E30EC00F0350E30EC00F071
:10209000300E30EC00F0200E30EC00F0530E30EC3F
:1020A00000F0650E30EC00F0630E30EC00F092EFC3
:1020B00010F004004F500308D8A476EF10F02E0E55
:1020C00030EC00F0370E30EC00F0350E30EC00F064
:1020D000200E30EC00F0530E30EC00F0650E30ECCA
:1020E00000F0630E30EC00F092EF10F0030E4F5C46
:1020F000866F020E0B6E86C006F0076A5E0E126EC9
:10210000136AD9EC00F0200E30EC00F0200E30EC19
:1021100000F0530E30EC00F0650E30EC00F0630E72
:1021200030EC00F0C80E18EC01F0810E1A6E0F0EA4
:102130001C6E100E186E0E6A0A0E0C6E0A0E0D6ED4
:10214000010E0F6E33500DEC00F0336ED8B0D1EFAE
:1021500010F0810E1A6E0F0E1C6E200E186E0E6A95
:102160000A0E0C6E0A0E0D6E010E0F6E33500DEC42
:1021700000F0336ED8B0DAEF10F0810E1A6E0F0E49
:102180001C6E800E186E0E6A0C680A0E0D6E010E23
:102190000F6E34500DEC00F0346ED8B0E9EF10F053
:1021A000C4D756504F2604004F50545CD8A0E6EFD9
:1021B00010F022D704004F50555CD8A4E3EF10F084
:1021C00054C04FF019D756504F5E16D755C04FF038
:1021D00013D75750310FE96E020EEA6AEA224FC058
:1021E000EFFFC4EC46F01200FE0E30EC00F0010EE2
:1021F00030EC00F0FE0E30EC00F0800E30EC00F021
:10220000490E30EC00F0520E30EC00F0200E30ECB5
:1022100000F0500E30EC00F06F0E30EC00F0770E56
:1022200030EC00F0650E30EC00F0720E30EC00F097
:10223000040051500108D8A43BEF11F0FE0E30EC21
:1022400000F0C00E30EC00F04F0E30EC00F0750ED8
:1022500030EC00F0740E30EC00F0640E30EC00F066
:102260006F0E30EC00F06F0E30EC00F0720E30ECC0
:1022700000F056EF11F0FE0E30EC00F0C00E30EC26
:1022800000F0490E30EC00F06E0E30EC00F0640E01
:1022900030EC00F06F0E30EC00F06F0E30EC00F020
:1022A000720E30EC00F0200E30EC00F0C80E18EC8E
:1022B00001F0810E1A6E0F0E1C6E100E186E0E6A53
:1022C0000C680A0E0D6E010E0F6E33500DEC00F00F
:1022D000336ED8B080EF11F0810E1A6E0F0E1C6EA7
:1022E000800E186E0E6A0C680A0E0D6E010E0F6ECF
:1022F00034500DEC00F0346ED8B08CEF11F0D9D71B
:10230000040051500108D8A489EF11F0516A8BEFF5
:1023100011F0010E516E8CD7C4EC46F01200200E65
:10232000576E556A1A0E546E010E566EFE0E30EC44
:1023300000F0010E30EC00F0FE0E30EC00F0800EEC
:1023400030EC00F0230E30EC00F0520E30EC00F0D8
:10235000650E30EC00F0730E30EC00F0700E30ECD7
:1023600000F0610E30EC00F0770E30EC00F06E0EF5
:1023700030EC00F05750310FE96E020EEA6AEA22A3
:102380005BC0EFFF37EC1EF05750310FE96E020EC5
:10239000EA6AEA22EFCF5BF0C4EC46F01200240EAA
:1023A000576E556A640E546E050E566EFE0E30EC76
:1023B00000F0010E30EC00F0FE0E30EC00F0800E6C
:1023C00030EC00F04D0E30EC00F0650E30EC00F01B
:1023D000640E30EC00F0690E30EC00F0200E30ECB2
:1023E00000F0420E30EC00F06F0E30EC00F0780E92
:1023F00030EC00F0FE0E30EC00F0C40E30EC00F0DB
:10240000500E30EC00F0740E30EC00F0730E30EC37
:1024100000F0FE0E30EC00F0C00E30EC00F0030EC9
:102420000B6E5CC006F0076A5E0E126E136AD9EC82
:1024300000F05750310FE96E020EEA6AEA225CC0E2
:10244000EFFFB4EC1CF05750310FE96E020EEA6A50
:10245000EA22EFCF5CF0C4EC46F01200250E576E76
:10246000556A320E546E010E566EFE0E30EC00F0C0
:10247000800E30EC00F0410E30EC00F06D0E30ECD0
:1024800000F06D0E30EC00F06F0E30EC00F0200E1E
:1024900030EC00F0420E30EC00F06F0E30EC00F04B
:1024A000780E30EC00F0FE0E30EC00F0C40E30EC94
:1024B00000F0430E30EC00F06C0E30EC00F0700ECB
:1024C00030EC00F0FE0E30EC00F0C00E30EC00F00E
:1024D000030E0B6E2AC006F0076A5E0E126E136AB8
:1024E000D9EC00F05750310FE96E020EEA6AEA2289
:1024F0002AC0EFFFB4EC1CF05750310FE96E020E0A
:10250000EA6AEA22EFCF2AF0C4EC46F01200260E67
:10251000576E556A640E546E010E566EFE0E30EC08
:1025200000F0010E30EC00F0FE0E30EC00F0800EFA
:1025300030EC00F0410E30EC00F0720E30EC00F0A8
:102540006D0E30EC00F0720E30EC00F0200E30EC2E
:1025500000F0420E30EC00F06F0E30EC00F0780E20
:1025600030EC00F0FE0E30EC00F0C40E30EC00F069
:10257000500E30EC00F0740E30EC00F0730E30ECC6
:1025800000F0FE0E30EC00F0C00E30EC00F0030E58
:102590000B6E74C006F0076A5E0E126E136AD9ECF9
:1025A00000F05750310FE96E020EEA6AEA2274C059
:1025B000EFFFB4EC1CF05750310FE96E020EEA6ADF
:1025C000EA22EFCF74F0C4EC46F012001D0E576EF5
:1025D000556A780E546E050E566EFE0E30EC00F005
:1025E000010E30EC00F0FE0E30EC00F0800E30EC0E
:1025F00000F0530E30EC00F0740E30EC00F0610E81
:1026000030EC00F0720E30EC00F0740E30EC00F0A4
:10261000440E30EC00F06C0E30EC00F0790E30EC33
:1026200000F0FE0E30EC00F0C40E30EC00F0530E63
:1026300030EC00F0650E30EC00F0630E30EC00F092
:102640005750310FE96E020EEA6AEA227BC0EFFFB3
:10265000B4EC1CF05750310FE96E020EEA6AEA2220
:10266000EFCF7BF0C4EC46F012001F0E576E556A98
:10267000780E546E010E566EFE0E30EC00F0010E18
:1026800030EC00F0FE0E30EC00F0800E30EC00F08C
:10269000470E30EC00F0610E30EC00F06D0E30ECC7
:1026A00000F0650E30EC00F0540E30EC00F0690ED6
:1026B00030EC00F06D0E30EC00F0650E30EC00F008
:1026C000FE0E30EC00F0C40E30EC00F04D0E30EC9D
:1026D00000F0690E30EC00F06E0E30EC00F0575058
:1026E000310FE96E020EEA6AEA228BC0EFFFF2ECCC
:1026F0001FF05750310FE96E020EEA6AEA22EFCF5F
:102700008BF0C4EC46F012001E0E576E556A780E20
:10271000546E050E566EFE0E30EC00F0010E30ECDD
:1027200000F0FE0E30EC00F0800E30EC00F0420EB7
:1027300030EC00F06C0E30EC00F0650E30EC00F088
:10274000650E30EC00F0640E30EC00F04F0E30EC13
:1027500000F0750E30EC00F0740E30EC00F0FE0E60
:1027600030EC00F0C40E30EC00F0530E30EC00F012
:10277000650E30EC00F0630E30EC00F05750310F76
:10278000E96E020EEA6AEA223DC0EFFFB4EC1CF0EB
:102790005750310FE96E020EEA6AEA22EFCF3DF0A0
:1027A000C4EC46F01200160E576E010E556E480E20
:1027B000546E010E566EFE0E30EC00F0010E30EC41
:1027C00000F0FE0E30EC00F0800E30EC00F04C0E0D
:1027D00030EC00F0690E30EC00F0660E30EC00F0EA
:1027E000650E30EC00F0FE0E30EC00F0C40E30EC64
:1027F00000F0500E30EC00F0740E30EC00F0730E70
:1028000030EC00F016EC22F0C4EC46F01200210E81
:10281000576E010E556E480E546E010E566EFE0E2A
:1028200030EC00F0010E30EC00F0FE0E30EC00F069
:10283000800E30EC00F05A0E30EC00F06F0E30ECF1
:1028400000F06D0E30EC00F0200E30EC00F04C0E7D
:1028500030EC00F0690E30EC00F0660E30EC00F069
:10286000650E30EC00F0FE0E30EC00F0C40E30ECE3
:1028700000F0500E30EC00F0740E30EC00F0730EEF
:1028800030EC00F016EC22F0C4EC46F01200190E09
:10289000576E050E556EFA0E546E050E566EFE0EF0
:1028A00030EC00F0010E30EC00F0FE0E30EC00F0E9
:1028B000800E30EC00F0410E30EC00F0720E30EC87
:1028C00000F06D0E30EC00F0720E30EC00F0200ED7
:1028D00030EC00F04D0E30EC00F0610E30EC00F00A
:1028E000780E30EC00F05750310FE96E020EEA6AB4
:1028F000EA227CC0EFFFB4EC1CF05750310FE96EB8
:10290000020EEA6AEA22EFCF7CF0C4EC46F0120035
:10291000170E576E010E556E640E546E010E566EF4
:10292000FE0E30EC00F0010E30EC00F0FE0E30EC4C
:1029300000F0800E30EC00F0410E30EC00F0720E32
:1029400030EC00F06D0E30EC00F0720E30EC00F068
:10295000200E30EC00F04D0E30EC00F0690E30EC43
:1029600000F06E0E30EC00F0FE0E30EC00F0C40E05
:1029700030EC00F0500E30EC00F0740E30EC00F053
:10298000730E30EC00F05750310FE96E020EEA6A18
:10299000EA2272C0EFFFB4EC1CF05750310FE96E21
:1029A000020EEA6AEA22EFCF72F0C4EC46F012009F
:1029B0000D0E576E556A5468050E566EFE0E30ECBD
:1029C00000F0010E30EC00F0FE0E30EC00F0800E56
:1029D00030EC00F04D0E30EC00F0610E30EC00F009
:1029E000670E30EC00F0200E30EC00F0530E30ECAF
:1029F00000F0690E30EC00F07A0E30EC00F0650E5D
:102A000030EC00F0FE0E30EC00F0C40E30EC00F0C4
:102A1000520E30EC00F06E0E30EC00F0640E30EC34
:102A200000F0730E30EC00F0040046500108D8A40A
:102A300023EF15F05750310FE96E020EEA6AEA22D1
:102A4000EF6A2BEF15F05750310FE96E020EEA6A6C
:102A5000EA2246C0EFFF09EC1FF05750310FE96E34
:102A6000020EEA6AEA22EFCF14F0040014500008C4
:102A7000D8A43FEF15F0010E466E47EF15F0575002
:102A8000310FE96E020EEA6AEA22EFCF46F0C4EC9B
:102A900046F01200FE0E30EC00F0010E30EC00F0BB
:102AA0000E0E576E020E556EC80E546E020E566E06
:102AB000FE0E30EC00F0800E30EC00F04D0E30ECED
:102AC00000F0610E30EC00F0670E30EC00F0730E99
:102AD00030EC00F05750310FE96E020EEA6AEA223C
:102AE00039C0EFFFB4EC1CF05750310FE96E020E05
:102AF000EA6AEA22EFCF39F0C4EC46F01200FE0E8B
:102B000030EC00F0010E30EC00F0030E576E556A09
:102B1000050E546E010E566EFE0E30EC00F0800E67
:102B200030EC00F0560E30EC00F06F0E30EC00F0A0
:102B30006C0E30EC00F0750E30EC00F06D0E30ECE9
:102B400000F0650E30EC00F037EC1CF05750310F00
:102B5000E96E020EEA6AEA2252C0EFFFC4EC46F0C8
:102B600012000C0E576E556A0F0E546E010E566E03
:102B7000FE0E30EC00F0010E30EC00F0FE0E30ECFA
:102B800000F0800E30EC00F0440E30EC00F0610EEE
:102B900030EC00F06D0E30EC00F0610E30EC00F027
:102BA000670E30EC00F0650E30EC00F0FE0E30ECFD
:102BB00000F0C40E30EC00F0500E30EC00F0740E5B
:102BC00030EC00F0730E30EC00F05750310FE96E2E
:102BD000020EEA6AEA224DC0EFFF61EC21F0575085
:102BE000310FE96E020EEA6AEA22EFCF4DF0C4EC33
:102BF00046F01200090E576E556A0F0E546E010E04
:102C0000566EFE0E30EC00F0010E30EC00F0FE0EC1
:102C100030EC00F0800E30EC00F0530E30EC00F0A1
:102C2000520E30EC00F04B0E30EC00F0640E30EC45
:102C300000F0610E30EC00F06D0E30EC00F0610E33
:102C400030EC00F0670E30EC00F0FE0E30EC00F0DF
:102C5000C40E30EC00F0500E30EC00F0740E30EC8E
:102C600000F0730E30EC00F05750310FE96E020E99
:102C7000EA6AEA2278C0EFFF61EC21F05750310F89
:102C8000E96E020EEA6AEA22EFCF78F0C4EC46F071
:102C90001200220E576E556A0F0E546E010E566EBC
:102CA000FE0E30EC00F0010E30EC00F0FE0E30ECC9
:102CB00000F0800E30EC00F05A0E30EC00F06F0E99
:102CC00030EC00F06D0E30EC00F0200E30EC00F037
:102CD000440E30EC00F0610E30EC00F06D0E30EC84
:102CE00000F0670E30EC00F0FE0E30EC00F0C40E89
:102CF00030EC00F0500E30EC00F0740E30EC00F0D0
:102D0000730E30EC00F05750310FE96E020EEA6A94
:102D1000EA224DC0EFFF61EC21F05750310FE96E10
:102D2000020EEA6AEA22EFCF4DF0C4EC46F0120040
:102D3000FE0E30EC00F0010E30EC00F0FE0E30EC38
:102D400000F0800E30EC00F0520E30EC00F0610E1E
:102D500030EC00F06E0E30EC00F0670E30EC00F05E
:102D6000650E30EC00F045C26AF08A6BE0EF16F0B9
:102D7000FE0E30EC00F0010E30EC00F0FE0E30ECF8
:102D800000F0800E30EC00F0530E30EC00F0520EEC
:102D900030EC00F04B0E30EC00F0720E30EC00F036
:102DA000610E30EC00F06E0E30EC00F0670E30EC8F
:102DB00000F0650E30EC00F03BC26AF0010E8A6F45
:102DC00004006A500008D8A4F8EF16F0FE0E30ECAC
:102DD00000F0C20E30EC00F04D0E30EC00F0490E69
:102DE00030EC00F04E0E30EC00F0200E30EC00F035
:102DF00004006A500108D8A410EF17F0FE0E30EC62
:102E000000F0C20E30EC00F0310E30EC00F0300E6D
:102E100030EC00F0200E30EC00F0250E30EC00F02D
:102E200004006A500208D8A428EF17F0FE0E30EC18
:102E300000F0C20E30EC00F0320E30EC00F0300E3C
:102E400030EC00F0200E30EC00F0250E30EC00F0FD
:102E500004006A500308D8A440EF17F0FE0E30ECCF
:102E600000F0C20E30EC00F0340E30EC00F0300E0A
:102E700030EC00F0200E30EC00F0250E30EC00F0CD
:102E800004006A500408D8A458EF17F0FE0E30EC86
:102E900000F0C20E30EC00F0360E30EC00F0300ED8
:102EA00030EC00F0200E30EC00F0250E30EC00F09D
:102EB00004006A500508D8A470EF17F0FE0E30EC3D
:102EC00000F0C20E30EC00F0380E30EC00F0300EA6
:102ED00030EC00F0200E30EC00F0250E30EC00F06D
:102EE00004006A500608D8A488EF17F0FE0E30ECF4
:102EF00000F0C20E30EC00F04D0E30EC00F0410E50
:102F000030EC00F0580E30EC00F0200E30EC00F009
:102F1000C80E18EC01F0810E1A6E0F0E1C6E100E0A
:102F2000186E0E6A0C680A0E0D6E010E0F6E33508D
:102F30000DEC00F0336ED8B0B2EF17F0810E1A6EC0
:102F40000F0E1C6E800E186E0E6A0C680A0E0D6E47
:102F5000010E0F6E34500DEC00F0346ED8B0CFEF90
:102F600017F0D9D76A2A04006A500708D8A4BAEF24
:102F700017F06A6A04008A510008D8A4C8EF17F055
:102F80006AC045F254EC47F06BC068F0CEEF17F022
:102F90006AC03BF254EC47F06BC079F011D7C4EC37
:102FA00046F01200FE0E30EC00F0010E30EC00F0A6
:102FB000FE0E30EC00F0800E30EC00F0530E30ECE2
:102FC00000F0650E30EC00F06C0E30EC00F0650E99
:102FD00030EC00F0630E30EC00F0740E30EC00F0DA
:102FE0006F0E30EC00F0720E30EC00F00400455033
:102FF0000008D8A41AEF18F0FE0E30EC00F0C00E56
:1030000030EC00F0530E30EC00F0650E30EC00F0C8
:103010006D0E30EC00F0690E30EC00F0410E30EC3B
:1030200000F0750E30EC00F0740E30EC00F06F0E16
:1030300030EC00F0040045500108D8A43EEF18F031
:10304000FE0E30EC00F0C00E30EC00F0420E30EC22
:1030500000F0750E30EC00F0720E30EC00F0730EE4
:1030600030EC00F0740E30EC00F0200E30EC00F08C
:10307000200E30EC00F0200E30EC00F00400455043
:103080000208D8A462EF18F0FE0E30EC00F0C00E7B
:1030900030EC00F0460E30EC00F0750E30EC00F035
:1030A0006C0E30EC00F06C0E30EC00F0410E30ECA9
:1030B00000F0750E30EC00F0740E30EC00F06F0E86
:1030C00030EC00F0C80E18EC01F0810E1A6E0F0EF5
:1030D0001C6E100E186E0E6A0C680A0E0D6E010E34
:1030E0000F6E33500DEC00F0336ED8B08CEF18F04B
:1030F000810E1A6E0F0E1C6E800E186E0E6A0C6812
:103100000A0E0D6E010E0F6E34500DEC00F0346E91
:10311000D8B099EF18F0D9D7040045500208D8A4C8
:1031200095EF18F0456A96EF18F0452A45C040F231
:103130005DD7C4EC46F01200040045500108D8A445
:10314000F1EF18F0100E576E010E556E060E546E0C
:10315000010E566EFE0E30EC00F0010E30EC00F069
:10316000FE0E30EC00F0800E30EC00F0420E30EC41
:1031700000F0750E30EC00F0720E30EC00F0730EC3
:1031800030EC00F0740E30EC00F0200E30EC00F06B
:10319000580E30EC00F0FE0E30EC00F0C40E30ECB7
:1031A00000F0520E30EC00F06E0E30EC00F0640EC9
:1031B00030EC00F0730E30EC00F05750310FE96E38
:1031C000020EEA6AEA2232C0EFFFB4EC1CF057505C
:1031D000310FE96E020EEA6AEA22EFCF32F0C4EC58
:1031E00046F01200110E576E556A090E546E010E0C
:1031F000566EFE0E30EC00F0010E30EC00F0FE0ECC
:1032000030EC00F0800E30EC00F0520E30EC00F0AC
:103210006E0E30EC00F0640E30EC00F0730E30EC0B
:1032200000F02F0E30EC00F04D0E30EC00F0690E87
:1032300030EC00F06E0E30EC00F0CCEC22F0C4EC80
:1032400046F01200040E576E556AF00E546E1E0EB4
:10325000566EFE0E30EC00F0010E30EC00F0FE0E6B
:1032600030EC00F0800E30EC00F04B0E30EC00F053
:10327000690E30EC00F06C0E30EC00F06C0E30ECAF
:1032800000F0200E30EC00F04C0E30EC00F0450E5B
:1032900030EC00F0440E30EC00F0FE0E30EC00F0AC
:1032A000C40E30EC00F0530E30EC00F0650E30EC44
:1032B00000F0630E30EC00F05750310FE96E020E53
:1032C000EA6AEA224EC0EFFF67EC1DF05750310F5B
:1032D000E96E020EEA6AEA22EFCF4EF0C4EC46F045
:1032E0001200120E576E556A1E0E546E010E566E67
:1032F000FE0E30EC00F0010E30EC00F0FE0E30EC73
:1033000000F0800E30EC00F0520E30EC00F0650E54
:1033100030EC00F06C0E30EC00F06F0E30EC00F092
:10332000610E30EC00F0640E30EC00F0FE0E30EC7C
:1033300000F0C40E30EC00F0530E30EC00F0650EDF
:1033400030EC00F0630E30EC00F05750310FE96EB6
:10335000020EEA6AEA226DC0EFFFB4EC1CF057508F
:10336000310FE96E020EEA6AEA22EFCF6DF0C4EC8B
:1033700046F01200FE0E30EC00F0010E30EC00F0D2
:10338000FE0E30EC00F0800E30EC00F04D0E30EC14
:1033900000F0750E30EC00F07A0E30EC00F0460EC6
:1033A00030EC00F06C0E30EC00F0610E30EC00F010
:1033B000730E30EC00F0680E30EC00F038B01F8671
:1033C00038A01F96B1EC20F01FB638801FA63890A9
:1033D000C4EC46F01200FE0E30EC00F0010E30ECB2
:1033E00000F0FE0E30EC00F0800E30EC00F0570ED6
:1033F00030EC00F0650E30EC00F0610E30EC00F0C7
:10340000700E30EC00F0200E30EC00F0520E30EC7C
:1034100000F06F0E30EC00F0520E30EC00F04AB6C7
:103420001F864AA61F9609EC21F01FB64A861FA6E2
:103430004A96C4EC46F01200FE0E30EC00F0010E8D
:1034400030EC00F0FE0E30EC00F0800E30EC00F0BE
:10345000410E30EC00F06D0E30EC00F06D0E30ECF3
:1034600000F06F0E30EC00F0200E30EC00F0520E49
:1034700030EC00F06F0E30EC00F0520E30EC00F04B
:1034800049BC1F8649AC1F9609EC21F01FB6498C38
:103490001FA6499CC4EC46F01200FE0E30EC00F072
:1034A000010E30EC00F0FE0E30EC00F0800E30EC3F
:1034B00000F0470E30EC00F0420E30EC00F06F0EE2
:1034C00030EC00F0780E30EC00F0200E30EC00F024
:1034D000520E30EC00F06F0E30EC00F0520E30EC7B
:1034E00000F048BC1F8648AC1F9609EC21F01FB6BF
:1034F000488C1FA6489CC4EC46F01200FE0E30EC2F
:1035000000F0010E30EC00F0FE0E30EC00F0800E0A
:1035100030EC00F0470E30EC00F0420E30EC00F0E2
:103520006F0E30EC00F0780E30EC00F0530E30EC03
:1035300000F0740E30EC00F0610E30EC00F0790E0B
:1035400030EC00F048BE1F8648AE1F9609EC21F013
:103550001FB6488E1FA6489EC4EC46F01200FE0E11
:1035600030EC00F0010E30EC00F0FE0E30EC00F01C
:10357000800E30EC00F0460E30EC00F06C0E30ECBB
:1035800000F0610E30EC00F0670E30EC00F0200E21
:1035900030EC00F0450E30EC00F06E0E30EC00F038
:1035A000640E30EC00F049BA1F8649AA1F9609EC58
:1035B00021F01FB6498A1FA6499AC4EC46F01200B2
:1035C000FE0E30EC00F0010E30EC00F0FE0E30ECA0
:1035D00000F0800E30EC00F0520E30EC00F0730E74
:1035E00030EC00F0700E30EC00F0460E30EC00F0E5
:1035F0006C0E30EC00F0610E30EC00F0730E30EC2D
:1036000000F0680E30EC00F048B81F8648A81F96FE
:10361000B1EC20F01FB648881FA64898C4EC46F0CD
:103620001200FE0E30EC00F0010E30EC00F0FE0E49
:1036300030EC00F0800E30EC00F05A0E30EC00F070
:103640006F0E30EC00F06D0E30EC00F0460E30ECFA
:1036500000F06C0E30EC00F0610E30EC00F0730EF8
:1036600030EC00F0680E30EC00F049B61F8649A639
:103670001F96B1EC20F01FB649861FA64996C4ECF0
:1036800046F01200FE0E30EC00F0010E30EC00F0BF
:10369000FE0E30EC00F0800E30EC00F0460E30EC08
:1036A00000F06C0E30EC00F0670E30EC00F0460ECF
:1036B00030EC00F06C0E30EC00F0610E30EC00F0FD
:1036C000730E30EC00F0680E30EC00F048BA1F8644
:1036D00048AA1F96B1EC20F01FB6488A1FA6489A48
:1036E000C4EC46F01200FE0E30EC00F0010E30EC9F
:1036F00000F0FE0E30EC00F0800E30EC00F04E0ECC
:1037000030EC00F0650E30EC00F0610E30EC00F0B3
:10371000720E30EC00F04D0E30EC00F0690E30EC23
:1037200000F0730E30EC00F0730E30EC00F049B88E
:103730001F8649A81F96B1EC20F01FB649881FA626
:103740004998C4EC46F01200FE0E30EC00F0010E79
:1037500030EC00F0FE0E30EC00F0800E30EC00F0AB
:10376000440E30EC00F0750E30EC00F0610E30ECE1
:1037700000F06C0E30EC00F0200E30EC00F04D0E3E
:1037800030EC00F0750E30EC00F07A0E30EC00F00A
:103790004ABE1F864AAE1F96B1EC20F01FB64A8E75
:1037A0001FA64A9EC4EC46F01200FE0E30EC00F05C
:1037B000010E30EC00F0FE0E30EC00F0800E30EC2C
:1037C00000F05A0E30EC00F06F0E30EC00F06D0E91
:1037D00030EC00F0530E30EC00F06F0E30EC00F0E7
:1037E000750E30EC00F06E0E30EC00F0640E30EC34
:1037F00000F04ABC1F864AAC1F96B1EC20F01FB601
:103800004A8C1FA64A9CC4EC46F01200FE0E30EC17
:1038100000F0010E30EC00F0FE0E30EC00F0800EF7
:1038200030EC00F05A0E30EC00F06F0E30EC00F08F
:103830006D0E30EC00F0200E30EC00F04D0E30EC50
:1038400000F06F0E30EC00F0640E30EC00F0650E0E
:1038500030EC00F048B21F8648A21F96B1EC20F071
:103860001FB648821FA64892C4EC46F01200FE0E16
:1038700030EC00F0C00E30EC00F0020E0B6E52C0C7
:1038800006F0076A5E0E126E136AD9EC00F0C80EDD
:1038900018EC01F0810E1A6E0F0E1C6E100E186ED1
:1038A0000E6A0A0E0C6E0A0E0D6E010E0F6E33506C
:1038B0000DEC00F0336ED8B087EF1CF0810E1A6E5D
:1038C0000F0E1C6E200E186E0E6A0A0E0C6E0A0E7B
:1038D0000D6E010E0F6E33500DEC00F0336ED8B04C
:1038E00097EF1CF0810E1A6E0F0E1C6E800E186E74
:1038F0000E6A0C680A0E0D6E010E0F6E34500DEC40
:1039000000F0346ED8B086EF1CF0C4D712005650C9
:10391000522604005250545CD8A0AAEF1CF05FEC71
:103920004EF0640E18EC01F0CBEC4DF0A0D7040083
:103930005250555CD8A4A0EF1CF054C052F097D759
:103940005650525E5FEC4EF0640E18EC01F0CBEC7A
:103950004DF08DD755C052F05FEC4EF0640E18EC70
:1039600001F0CBEC4DF083D7FE0E30EC00F0C00E32
:1039700030EC00F0030E0B6E5750310FE96E020E63
:10398000EA6AEA22EFCF14F014C006F0076A5E0E6E
:10399000126E136AD9EC00F0C80E18EC01F0810E1B
:1039A0001A6E0F0E1C6E100E186E0E6A0A0E0C6E3A
:1039B0000A0E0D6E010E0F6E33500DEC00F0336EDB
:1039C000D8B00CEF1DF0810E1A6E0F0E1C6E200E7B
:1039D000186E0E6A0A0E0C6E0A0E0D6E010E0F6E38
:1039E00033500DEC00F0336ED8B030EF1DF0810E87
:1039F0001A6E0F0E1C6E800E186E0E6A0C680A0E80
:103A00000D6E010E0F6E34500DEC00F0346ED8B018
:103A10000BEF1DF0C4D712005750310FE96E020EA4
:103A2000EA6AEA22EFCF14F014505624146E156A95
:103A300015365750310FE96E020EEA6AEA2214C0B9
:103A4000EFFF5750310FE96E020EEA6AEA22EFCF1C
:103A500014F004001450545CD8A05EEF1DF084D71D
:103A60005750310FE96E020EEA6AEA22EFCF14F0E6
:103A700004001450555CD8A447EF1DF05750310F87
:103A8000E96E020EEA6AEA2254C0EFFF6DD7575082
:103A9000310FE96E020EEA6AEA22EFCF14F05650B7
:103AA000145C146E156AD8A015065750310FE96ED4
:103AB000020EEA6AEA2214C0EFFF56D75750310FC0
:103AC000E96E020EEA6AEA2255C0EFFF4DD7FE0EFC
:103AD00030EC00F0C00E30EC00F0030E0B6E5750CF
:103AE000310FE96E020EEA6AEA22EFCF14F014C039
:103AF00006F0076A5E0E126E136AD9EC00F057509A
:103B0000310FE96E020EEA6AEA22EFCF14F00400E8
:103B100014500008D8A49CEF1DF0FE0E30EC00F00D
:103B2000C00E30EC00F04F0E30EC00F0660E30ECC2
:103B300000F0660E30EC00F0C80E18EC01F0810EBB
:103B40001A6E0F0E1C6E100E186E0E6A0A0E0C6E98
:103B50000A0E0D6E010E0F6E33500DEC00F0336E39
:103B6000D8B0DCEF1DF0810E1A6E0F0E1C6E200E09
:103B7000186E0E6A0A0E0C6E0A0E0D6E010E0F6E96
:103B800033500DEC00F0336ED8B000EF1EF0810E14
:103B90001A6E0F0E1C6E800E186E0E6A0C680A0EDE
:103BA0000D6E010E0F6E34500DEC00F0346ED8B077
:103BB000DBEF1DF0C4D712005750310FE96E020E33
:103BC000EA6AEA22EFCF14F004001450545CD8B42F
:103BD0002EEF1EF05750310FE96E020EEA6AEA220C
:103BE000EFCF14F014505624146E156A1536575042
:103BF000310FE96E020EEA6AEA2214C0EFFF67D7BE
:103C00005750310FE96E020EEA6AEA22EFCF14F044
:103C100004001450555CD8A417EF1EF05750310F14
:103C2000E96E020EEA6AEA2254C0EFFF50D75750FD
:103C3000310FE96E020EEA6AEA22EFCF14F0565015
:103C4000145C146E156AD8A015065750310FE96E32
:103C5000020EEA6AEA2214C0EFFF39D75750310F3B
:103C6000E96E020EEA6AEA2255C0EFFF30D75750DC
:103C7000310FE96E020EEA6AEA22EFCF14F0040077
:103C800014501A08D8A456EF1EF0FE0E30EC00F0C7
:103C9000C00E30EC00F0550E30EC00F04E0E30EC63
:103CA00000F04C0E30EC00F06EEF1EF0FE0E30EC2B
:103CB00000F0C00E30EC00F0030E0B6E5750310FC9
:103CC000E96E020EEA6AEA22EFCF14F014C006F0A1
:103CD000076A5E0E126E136AD9EC00F0C80E18EC7B
:103CE00001F0810E1A6E0F0E1C6E100E186E0E6A09
:103CF0000A0E0C6E0A0E0D6E010E0F6E33500DEC97
:103D000000F0336ED8B0AEEF1EF0810E1A6E0F0EBB
:103D10001C6E200E186E0E6A0A0E0C6E0A0E0D6EC8
:103D2000010E0F6E33500DEC00F0336ED8B0D2EFB1
:103D30001EF0810E1A6E0F0E1C6E800E186E0E6A2B
:103D40000C680A0E0D6E010E0F6E34500DEC00F073
:103D5000346ED8B0ADEF1EF0C4D712005750310FFB
:103D6000E96E020EEA6AEA22EFCF14F014505624EC
:103D7000146E156A15365750310FE96E020EEA6A55
:103D8000EA2214C0EFFF5750310FE96E020EEA6AC3
:103D9000EA22EFCF14F004001450545CD8A000EFD6
:103DA0001FF065D75750310FE96E020EEA6AEA221A
:103DB000EFCF14F004001450555CD8A4E9EF1EF0C6
:103DC0005750310FE96E020EEA6AEA2254C0EFFF43
:103DD0004ED75750310FE96E020EEA6AEA22EFCF52
:103DE00014F05650145C146E156AD8A0150657507E
:103DF000310FE96E020EEA6AEA2214C0EFFF37D7EC
:103E00005750310FE96E020EEA6AEA2255C0EFFF01
:103E10002ED7FE0E30EC00F0C00E30EC00F0575004
:103E2000310FE96E020EEA6AEA22EFCF14F00400C5
:103E300014500008D8A428EF1FF0300E30EC00F02A
:103E4000300E30EC00F0310E30EC00F03AEF1FF0A5
:103E5000030E0B6E5750310FE96E020EEA6AEA222A
:103E6000EFCF14F014C006F0076A5E0E126E136AEC
:103E7000D9EC00F05750310FE96E020EEA6AEA22DF
:103E8000EFCF14F004001450FF08D8A457EF1FF030
:103E9000FE0E30EC00F0C00E30EC00F0550E30ECB1
:103EA00000F04E0E30EC00F04C0E30EC00F0C80E7E
:103EB00018EC01F0810E1A6E0F0E1C6E100E186EAB
:103EC0000E6A0A0E0C6E0A0E0D6E010E0F6E335046
:103ED0000DEC00F0336ED8B097EF1FF0810E1A6E24
:103EE0000F0E1C6E200E186E0E6A0A0E0C6E0A0E55
:103EF0000D6E010E0F6E33500DEC00F0336ED8B026
:103F0000BBEF1FF0810E1A6E0F0E1C6E800E186E26
:103F10000E6A0C680A0E0D6E010E0F6E34500DEC19
:103F200000F0346ED8B096EF1FF0C4D7120057508F
:103F3000310FE96E020EEA6AEA22EFCF14F00400B4
:103F40001450545CD8B4E9EF1FF05750310FE96EAC
:103F5000020EEA6AEA22EFCF14F014505624146ECF
:103F6000156A15365750310FE96E020EEA6AEA22D9
:103F700014C0EFFF4ED75750310FE96E020EEA6AB8
:103F8000EA22EFCF14F004001450555CD8A4D2EF0D
:103F90001FF05750310FE96E020EEA6AEA2254C050
:103FA000EFFF37D75750310FE96E020EEA6AEA2267
:103FB000EFCF14F05650145C146E156AD8A0150695
:103FC0005750310FE96E020EEA6AEA2214C0EFFF81
:103FD00020D75750310FE96E020EEA6AEA2255C027
:103FE000EFFF17D7FE0E30EC00F0C00E30EC00F003
:103FF000030E0B6E5750310FE96E020EEA6AEA2289
:10400000EFCF14F014C006F0076A5E0E126E136A4A
:10401000D9EC00F0200E30EC00F06D0E30EC00F02A
:10402000690E30EC00F06E0E30EC00F0C80E18ECAB
:1040300001F0810E1A6E0F0E1C6E100E186E0E6AB5
:104040000A0E0C6E0A0E0D6E010E0F6E33500DEC43
:1040500000F0336ED8B056EF20F0810E1A6E0F0EBE
:104060001C6E200E186E0E6A0A0E0C6E0A0E0D6E75
:10407000010E0F6E33500DEC00F0336ED8B07AEFB6
:1040800020F0810E1A6E0F0E1C6E800E186E0E6AD6
:104090000C680A0E0D6E010E0F6E34500DEC00F020
:1040A000346ED8B055EF20F0C4D712005750310FFE
:1040B000E96E020EEA6AEA22EFCF14F01450562499
:1040C000146E156A15365750310FE96E020EEA6A02
:1040D000EA2214C0EFFF5750310FE96E020EEA6A70
:1040E000EA22EFCF14F004001450545CD8A0A8EFDB
:1040F00020F078D75750310FE96E020EEA6AEA22B3
:10410000EFCF14F004001450555CD8A491EF20F0C8
:104110005750310FE96E020EEA6AEA2254C0EFFFEF
:1041200061D75750310FE96E020EEA6AEA22EFCFEB
:1041300014F05650145C146E156AD8A0150657502A
:10414000310FE96E020EEA6AEA2214C0EFFF4AD785
:104150005750310FE96E020EEA6AEA2255C0EFFFAE
:1041600041D704001FA6C6EF20F0FE0E30EC00F091
:10417000C00E30EC00F04F0E30EC00F06E0E30EC64
:1041800000F0200E30EC00F0D5EF20F0FE0E30EC09
:1041900000F0C00E30EC00F04F0E30EC00F0660E78
:1041A00030EC00F0660E30EC00F0C80E18EC01F0B8
:1041B000810E1A6E0F0E1C6E100E186E0E6A0C68B1
:1041C0000A0E0D6E010E0F6E33500DEC00F0336EC3
:1041D000D8B000EF21F0810E1A6E0F0E1C6E800E0B
:1041E000186E0E6A0C680A0E0D6E010E0F6E3450BA
:1041F0000DEC00F0346ED8B0FFEF20F0D9D71200EC
:1042000004001FA607EF21F01F9608EF21F01F867C
:10421000A8D704001FA61EEF21F0FE0E30EC00F020
:10422000C00E30EC00F0590E30EC00F0650E30ECB2
:1042300000F0730E30EC00F02DEF21F0FE0E30ECAC
:1042400000F0C00E30EC00F04E0E30EC00F06F0EBF
:1042500030EC00F0200E30EC00F0C80E18EC01F04D
:10426000810E1A6E0F0E1C6E100E186E0E6A0C6800
:104270000A0E0D6E010E0F6E33500DEC00F0336E12
:10428000D8B058EF21F0810E1A6E0F0E1C6E800E02
:10429000186E0E6A0C680A0E0D6E010E0F6E345009
:1042A0000DEC00F0346ED8B057EF21F0D9D71200E2
:1042B00004001FA65FEF21F01F9660EF21F01F861C
:1042C000A8D75750310FE96E020EEA6AEA22EFCF03
:1042D00086F072EC47F0FE0E30EC00F0C00E30ECD1
:1042E00000F0030E0B6E1EC106F0076A5E0E126E22
:1042F000136AD9EC00F0C80E18EC01F0810E1A6EAA
:104300000F0E1C6E100E186E0E6A0A0E0C6E0A0E40
:104310000D6E010E0F6E33500DEC00F0336ED8B001
:10432000BBEF21F0810E1A6E0F0E1C6E200E186E60
:104330000E6A0A0E0C6E0A0E0D6E010E0F6E3350D1
:104340000DEC00F0336ED8B0DFEF21F0810E1A6E65
:104350000F0E1C6E800E186E0E6A0C680A0E0D6E23
:10436000010E0F6E34500DEC00F0346ED8B0BAEF81
:1043700021F0C4D712005750310FE96E020EEA6ADD
:10438000EA22EFCF14F014505624146E156A153635
:104390005750310FE96E020EEA6AEA2214C0EFFFAD
:1043A0005750310FE96E020EEA6AEA22EFCF14F09D
:1043B00004001450545CD8A00DEF22F082D757505F
:1043C000310FE96E020EEA6AEA22EFCF14F0040020
:1043D0001450555CD8A4F6EF21F05750310FE96E18
:1043E000020EEA6AEA2254C0EFFF6BD75750310F32
:1043F000E96E020EEA6AEA22EFCF14F05650145C1E
:10440000146E156AD8A015065750310FE96E020ECA
:10441000EA6AEA2214C0EFFF54D75750310FE96E11
:10442000020EEA6AEA2255C0EFFF4BD75750310F10
:10443000E96E020EEA6AEA22EFCF86F0BDEC47F0A1
:10444000FE0E30EC00F0C00E30EC00F0030E0B6EF0
:1044500026C006F027C007F05E0E126E136AD9EC74
:1044600000F0C80E18EC01F0810E1A6E0F0E1C6ED3
:10447000100E186E0E6A0A0E0C6E0A0E0D6E010EEC
:104480000F6E33500DEC00F0336ED8B071EF22F0A8
:10449000810E1A6E0F0E1C6E200E186E0E6A0A0E1A
:1044A0000C6E0A0E0D6E010E0F6E33500DEC00F007
:1044B000336ED8B095EF22F0810E1A6E0F0E1C6E7F
:1044C000800E186E0E6A0C680A0E0D6E010E0F6ECD
:1044D00034500DEC00F0346ED8B070EF22F0C4D739
:1044E00012005750310FE96E020EEA6AEA22EFCF4E
:1044F00014F014505624146E156A15365750310FA7
:10450000E96E020EEA6AEA2214C0EFFF5750310F3B
:10451000E96E020EEA6AEA22EFCF14F004001450AA
:10452000545CD8A0C3EF22F081D75750310FE96E09
:10453000020EEA6AEA22EFCF14F004001450555C30
:10454000D8A4ACEF22F05750310FE96E020EEA6AA0
:10455000EA2254C0EFFF6AD75750310FE96E020EBE
:10456000EA6AEA22EFCF14F05650145C146E156A12
:10457000D8A015065750310FE96E020EEA6AEA22FA
:1045800014C0EFFF53D75750310FE96E020EEA6A9D
:10459000EA2255C0EFFF4AD75750310FE96E020E9D
:1045A000EA6AEA22EFCF86F099EC47F004003B502C
:1045B000FF08D8A4F7EF22F0FE0E30EC00F0C00E9A
:1045C00030EC00F0200E30EC00F0360E30EC00F055
:1045D000300E30EC00F0200E30EC00F0520E30ECDB
:1045E00000F0500E30EC00F04D0E30EC00F0040006
:1045F0003B50C308D8A418EF23F0FE0E30EC00F0B7
:10460000C00E30EC00F0320E30EC00F0350E30EC25
:1046100000F0300E30EC00F0200E30EC00F0520EC6
:1046200030EC00F0500E30EC00F04D0E30EC00F0AD
:1046300004003B509B08D8A439EF23F0FE0E30EC69
:1046400000F0C00E30EC00F0330E30EC00F0300E15
:1046500030EC00F0300E30EC00F0200E30EC00F0CA
:10466000520E30EC00F0500E30EC00F04D0E30ECFD
:1046700000F004003B507E08D8A45AEF23F0FE0E51
:1046800030EC00F0C00E30EC00F0330E30EC00F0F7
:10469000350E30EC00F0300E30EC00F0200E30EC37
:1046A00000F0520E30EC00F0500E30EC00F04D0EE9
:1046B00030EC00F004003B506908D8A47BEF23F0F5
:1046C000FE0E30EC00F0C00E30EC00F0340E30EC9A
:1046D00000F0300E30EC00F0300E30EC00F0200E28
:1046E00030EC00F0520E30EC00F0500E30EC00F0E8
:1046F0004D0E30EC00F004003B505808D8A49CEF5D
:1047000023F0FE0E30EC00F0C00E30EC00F0340E62
:1047100030EC00F0350E30EC00F0300E30EC00F0F4
:10472000200E30EC00F0520E30EC00F0500E30EC69
:1047300000F04D0E30EC00F004003B504B08D8A4C4
:10474000BDEF23F0FE0E30EC00F0C00E30EC00F0B8
:10475000350E30EC00F0300E30EC00F0300E30EC66
:1047600000F0200E30EC00F0520E30EC00F0500E55
:1047700030EC00F04D0E30EC00F004003B504008EF
:10478000D8A4DEEF23F0FE0E30EC00F0C00E30ECCB
:1047900000F0350E30EC00F0350E30EC00F0300E4D
:1047A00030EC00F0200E30EC00F0520E30EC00F057
:1047B000500E30EC00F04D0E30EC00F004003B5099
:1047C0003708D8A4FFEF23F0FE0E30EC00F0C00E47
:1047D00030EC00F0360E30EC00F0300E30EC00F033
:1047E000300E30EC00F0200E30EC00F0520E30ECC9
:1047F00000F0500E30EC00F04D0E30EC00F00400F4
:104800003B502F08D8A420EF24F0FE0E30EC00F02F
:10481000C00E30EC00F0360E30EC00F0350E30EC0F
:1048200000F0300E30EC00F0200E30EC00F0520EB4
:1048300030EC00F0500E30EC00F04D0E30EC00F09B
:1048400004003B502908D8A441EF24F0FE0E30ECC0
:1048500000F0C00E30EC00F0370E30EC00F0300EFF
:1048600030EC00F0300E30EC00F0200E30EC00F0B8
:10487000520E30EC00F0500E30EC00F04D0E30ECEB
:1048800000F004003B502308D8A462EF24F0FE0E91
:1048900030EC00F0C00E30EC00F0370E30EC00F0E1
:1048A000350E30EC00F0300E30EC00F0200E30EC25
:1048B00000F0520E30EC00F0500E30EC00F04D0ED7
:1048C00030EC00F004003B501E08D8A483EF24F025
:1048D000FE0E30EC00F0C00E30EC00F0380E30EC84
:1048E00000F0300E30EC00F0300E30EC00F0200E16
:1048F00030EC00F0520E30EC00F0500E30EC00F0D6
:104900004D0E30EC00F0C80E18EC01F0810E1A6E5E
:104910000F0E1C6E100E186E0E6A0A0E0C6E0A0E2A
:104920000D6E010E0F6E33500DEC00F0336ED8B0EB
:10493000C3EF24F0810E1A6E0F0E1C6E200E186E3F
:104940000E6A0A0E0C6E0A0E0D6E010E0F6E3350BB
:104950000DEC00F0336ED8B0E8EF24F0810E1A6E43
:104960000F0E1C6E800E186E0E6A0C680A0E0D6E0D
:10497000010E0F6E34500DEC00F0346ED8B0C2EF63
:1049800024F0C4D712005750310FE96E020EEA6AC4
:10499000EA22EFCF14F014505624146E156A15361F
:1049A0005750310FE96E020EEA6AEA2214C0EFFF97
:1049B0005750310FE96E020EEA6AEA22EFCF14F087
:1049C00004001450545CD8A018EF25F0CCEF22F06E
:1049D0005750310FE96E020EEA6AEA22EFCF14F067
:1049E00004001450555CD8A400EF25F05750310F47
:1049F000E96E020EEA6AEA2254C0EFFFCCEF22F021
:104A00005750310FE96E020EEA6AEA22EFCF14F036
:104A10005650145C146E156AD8A015065750310F05
:104A2000E96E020EEA6AEA2214C0EFFFCCEF22F030
:104A30005750310FE96E020EEA6AEA2255C0EFFFC5
:104A4000CCEF22F0FE0E30EC00F0010E30EC00F066
:104A5000FE0E30EC00F0820E30EC00F0530E30EC25
:104A600000F0610E30EC00F0760E30EC00F0650ED8
:104A700030EC00F0FE0E30EC00F0C00E30EC00F038
:104A8000530E30EC00F0650E30EC00F0740E30EC9C
:104A900000F0740E30EC00F0690E30EC00F06E0E99
:104AA00030EC00F0670E30EC00F0730E30EC00F0EC
:104AB000C80E18EC01F0810E1A6E0F0E1C6E800EDF
:104AC000186E0E6A0C680A0E0D6E010E0F6E3550D0
:104AD0000DEC00F0356ED8B083EF25F0810E1A6E24
:104AE0000F0E1C6E100E186E0E6A0C680A0E0D6EFC
:104AF000010E0F6E34500DEC00F0346ED8B082EF22
:104B000025F0D9D71200FE0E30EC00F0010E30EC8B
:104B100000F0FE0E30EC00F0810E30EC00F0530E91
:104B200030EC00F0610E30EC00F0760E30EC00F06E
:104B3000690E30EC00F06E0E30EC00F0670E30ECD9
:104B400000F0FE0E30EC00F0C00E30EC00F0530E22
:104B500030EC00F0650E30EC00F0740E30EC00F03C
:104B6000740E30EC00F0690E30EC00F06E0E30EC9C
:104B700000F0670E30EC00F0730E30EC00F0010E28
:104B8000056E2C0E19EC01F051C044F24CC03CF201
:104B900038C046F248C04BF249C04CF24AC058F205
:104BA000576A0400290E575CD8B0E9EF25F057C0CA
:104BB000A9FF5750310FE96E020EEA6AEA22EFCFE1
:104BC000A8FF2DEC26F00F0E18EC01F0572AD8A004
:104BD000E8D71200000ED66EF29481B005D0F2A490
:104BE000FCD7FF0E5A6E1200D6505A6E45EC26F0D6
:104BF00045EC26F045EC26F045EC26F081A0EDD7FB
:104C00001200C30ED66EF29481A003D0F2A4FCD79A
:104C100011D045EC26F045EC26F045EC26F045ECAD
:104C200026F081B0F1D7690ED66EF29481B004D02F
:104C3000F2A4FCD71E801200D6505A6E45EC26F026
:104C400045EC26F045EC26F045EC26F081A0EED7A9
:104C50001200A69EA69CA6801200A69EA69CA684D4
:104C6000550EA76EAA0EA76EA682A69412005090AB
:104C7000C80E8E6F45EC26F0000081A005D08E2F67
:104C8000F9D7902FF5D7120050801200130E8E6FB7
:104C9000F2B212008E2FFCD7902FF8D71200040E1C
:104CA0008E6FF2B212008E2FFCD71200D4EC01F0FE
:104CB000CFCF8CF0D4EC01F03C0E8C25CF6ED4EC31
:104CC00001F0AF0ECE6ED4EC01F09E90D4EC01F06A
:104CD000752AD4EC01F0040075A086EF26F0D4EC20
:104CE00001F0E86A1EA8010FD8B41E98D8A41E8847
:104CF000D4EC01F004001EA884EF26F0D4EC01F0FF
:104D00001E7A309AD4EC01F0D4EC01F0D4EC01F02E
:104D100004007D500608D8A49CEF26F0D4EC01F0E6
:104D2000040048A89AEF26F0D4EC01F0817C939C13
:104D3000D4EC01F0D4EC01F0D4EC01F00400755097
:104D40000101305D0001D8A476EF29F0D4EC01F028
:104D5000756AD4EC01F00101292B0001D4EC01F0BB
:104D60000400010129513C080001D8A4F5EF26F008
:104D7000D4EC01F00101282B0001D4EC01F0010179
:104D8000296B0001D4EC01F004007D500008D8A488
:104D9000F3EF26F0D4EC01F004004AACF1EF26F07A
:104DA000D4EC01F0E86A48B2E868146E8351000858
:104DB000D8A4E868FF0A166E14C002F0165087ECFB
:104DC00001F0166E176E040016501710D8B4EFEFEE
:104DD00026F0D4EC01F0C1EC4DF0D4EC01F0D4ECB1
:104DE00001F0D4EC01F0D4EC01F0D4EC01F00400BB
:104DF0007D500308D8B435EF27F0D4EC01F028C17A
:104E000002F08B5163EC01F0146E8B510008D8A4B2
:104E1000E868166E14C002F0165087EC01F0166EAA
:104E2000176E040016501710D8B435EF27F0D4ECE5
:104E300001F029C125F1D4EC01F028C124F1D4EC12
:104E400001F089EC4DF0D4EC01F0030E7D6ED4EC52
:104E500001F0626AD4EC01F00101226B0001D4EC94
:104E600001F099EF2DF0D4EC01F0D4EC01F0010148
:104E7000222B0001D4EC01F0010E026E036A056AD8
:104E8000320E47EC01F0146E03C015F0145001010E
:104E90002C270001D4EC01F0640E7C2401010A6F80
:104EA0000B6B0B370001D4EC01F024C002F025C0DD
:104EB00003F00BC105F001010A51000165EC01F09E
:104EC000D8A491EF27F0D4EC01F024C002F025C063
:104ED00003F0056A640E65EC01F0D8A47BEF27F0BF
:104EE000D4EC01F0242A000E2522D4EC01F091EF3D
:104EF00027F0D4EC01F0D4EC01F073502424146EAC
:104F0000E86A2520156E14C002F015C003F00BC12D
:104F100005F001010A51000147EC01F0246E03C0C5
:104F200025F0D4EC01F004007D500008D8A4ABEFCC
:104F300027F0D4EC01F0040001012C510508000118
:104F4000D8A4A9EF27F0D4EC01F052EC4CF0D4EC4B
:104F500001F0D4EC01F0D4EC01F001011329146E3E
:104F6000156A1536320E026E036A15C005F014502C
:104F7000000147EC01F00101136F0001D4EC01F0D6
:104F800004001F0E0101135D0001D8A0CEEF27F031
:104F9000D4EC01F082929492D4EC01F0D4EC01F0C4
:104FA00004007D500008D8A413EF28F0D4EC01F0E1
:104FB00004001EA6EAEF27F0D4EC01F0040048AA92
:104FC000E8EF27F0D4EC01F0817C939CD4EC01F065
:104FD000D4EC01F0D4EC01F0E86A48B2E868146E51
:104FE00083510008D8A4E868FF0A166E14C002F0C6
:104FF000165087EC01F0166E176E0400165017104D
:10500000D8B411EF28F0D4EC01F0040049A60FEF5A
:1050100028F0D4EC01F0817C939CD4EC01F0D4EC2A
:1050200001F0D4EC01F0D4EC01F00400010E4E5C70
:10503000D8A03EEF28F0D4EC01F07D500308D8A4AE
:10504000E868FF0A146E22C102F04E5068EC01F0CD
:10505000166E14C002F0165087EC01F0166E176E33
:10506000040016501710D8B43CEF28F0D4EC01F02F
:10507000819C939CD4EC01F0D4EC01F0D4EC01F0D1
:105080009280D4EC01F00E0EC16ED4EC01F0C2821D
:10509000D4EC01F004002D500208D8A4ACEF28F0A5
:1050A000D4EC01F00101AF0E2D6F0001D4EC01F042
:1050B00079EC29F0D4EC01F00400C2B2E9D7D4ECC9
:1050C00001F0C4CF17F1D4EC01F00F0EC16ED4EC97
:1050D00001F09290D4EC01F00400AF0E0101175DD5
:1050E0000001D8A0C7EF29F0D4EC01F00400C60EEF
:1050F0000101175D0001D8B08AEF28F0D4EC01F06F
:105100000101020E146F0001D4EC01F074EF29F0DC
:10511000D4EC01F0D4EC01F00400DC0E0101175DC9
:105120000001D8B0A0EF28F0D4EC01F00101010E8D
:10513000146F0001D4EC01F074EF29F0D4EC01F00D
:10514000D4EC01F00101146B0001D4EC01F0010179
:10515000156B0001D4EC01F0D4EC01F004002D50EB
:105160000108D8A410EF29F0D4EC01F00101A50E3C
:105170002D6F0001D4EC01F079EC29F0D4EC01F0B2
:105180000400C2B285D7D4EC01F0C4CF17F1D4EC3F
:1051900001F00F0EC16ED4EC01F09290D4EC01F04E
:1051A0000400AF0E0101175D0001D8A0C7EF29F080
:1051B000D4EC01F00400C20E0101175D0001D8B06B
:1051C000EEEF28F0D4EC01F00101020E146F0001A3
:1051D000D4EC01F074EF29F0D4EC01F0D4EC01F040
:1051E0000400D00E0101175D0001D8B004EF29F0D2
:1051F000D4EC01F00101010E146F0001D4EC01F0B8
:1052000074EF29F0D4EC01F0D4EC01F00101146B3F
:105210000001D4EC01F00101156B0001D4EC01F0A8
:10522000D4EC01F004002D500008D8A474EF29F04C
:10523000D4EC01F00101960E2D6F0001D4EC01F0C9
:1052400079EC29F0D4EC01F00400C2B221D7D4ECFF
:1052500001F0C4CF17F1D4EC01F00F0EC16ED4EC05
:1052600001F09290D4EC01F00400960E0101175D5C
:105270000001D8A0C7EF29F0D4EC01F00400AA0E79
:105280000101175D0001D8B052EF29F0D4EC01F014
:105290000101020E146F0001D4EC01F074EF29F04B
:1052A000D4EC01F0D4EC01F00400CD0E0101175D47
:1052B0000001D8B068EF29F0D4EC01F00101010E33
:1052C000146F0001D4EC01F074EF29F0D4EC01F07C
:1052D000D4EC01F00101146B0001D4EC01F00101E8
:1052E000156B0001D4EC01F0D4EC01F0D4EC01F02A
:1052F0001200D4EC01F0020E01012D25146E156A86
:10530000153617C102F0036A15C005F014500001EC
:1053100065EC01F0D8A497EF29F0D4EC01F001017D
:10532000166B0001D4EC01F01200D4EC01F0D4ECC7
:1053300001F001012D51175D146E156AD8A01506F4
:1053400014C002F015C003F0040E046E056A0001DB
:1053500093EC01F0146E03C015F0026A036A15C0E5
:1053600005F0145043EC01F00101166F0001D4EC7C
:1053700001F00A0E026E036A01011651000146ECAB
:1053800001F00101166F0001D4EC01F01200D4EC21
:1053900001F00101030E146F0001D4EC01F00101D2
:1053A000152B0001D4EC01F004000B0E0101155D7A
:1053B0000001D8A0E7EF29F0D4EC01F093EC4DF018
:1053C000D4EC01F00101156B0001D4EC01F0D4EC38
:1053D00001F01200D4EC01F0866B0400080E865D2B
:1053E000D8B009EF2AF0D4EC01F08651000FE96E35
:1053F000030EEA6AEA22EFCF1DF1D4EC01F00101BD
:105400001D51000130EC00F0D4EC01F0862BD8A047
:10541000E4D7D4EC01F01200D4EC01F0040048B25F
:1054200037EF2AF0D4EC01F082C008F0096A080EC8
:10543000046E056AABEC01F0876F01018C0E006F02
:10544000570E016F0001D4EC01F00101040E00279A
:10545000000E01230001D4EC01F087510101002767
:10546000E86A01230001D4EC01F05AEF2AF0D4ECF1
:1054700001F082C008F0096A080E046E056AABEC00
:1054800001F0876F0101B00E006F570E016F000130
:10549000D4EC01F00101040E0027000E01230001ED
:1054A000D4EC01F0875101010027E86A01230001D3
:1054B000D4EC01F0D4EC01F0010E866F0400090E6B
:1054C000865DD8B082EF2AF0D4EC01F000C1F6FF7F
:1054D00001C1F7FF11EC01F001011D6F0001D4ECD7
:1054E00001F001011D51000130EC00F0D4EC01F09D
:1054F0000101002B000E01230001D4EC01F0862BEA
:10550000D8A0DCD7D4EC01F01200D4EC01F00400F8
:1055100048B2DAEF2AF0D4EC01F082C008F0096A50
:10552000080E046E056AABEC01F0876F01018C0E6A
:10553000006F570E016F0001D4EC01F00101040E61
:105540000027000E01230001D4EC01F08751010176
:105550000027E86A01230001D4EC01F0866B040007
:10556000080E865DD8B0D6EF2AF0D4EC01F000C169
:10557000F6FF01C1F7FF11EC01F001011D6F000101
:10558000D4EC01F08651000FE96E030EEA6AEA22BC
:105590001DC1EFFFD4EC01F00101002B000E01232F
:1055A0000001D4EC01F0862BD8A0D9D7D4EC01F0BF
:1055B00027EF2BF0D4EC01F082C008F0096A080E46
:1055C000046E056AABEC01F0876F0101B00E006F4D
:1055D000570E016F0001D4EC01F00101040E002709
:1055E000000E01230001D4EC01F0875101010027D6
:1055F000E86A01230001D4EC01F0866B0400080E78
:10560000865DD8B025EF2BF0D4EC01F000C1F6FF99
:1056100001C1F7FF11EC01F001011D6F0001D4EC95
:1056200001F08651000FE96E030EEA6AEA221DC1FD
:10563000EFFFD4EC01F00101002B000E012300016B
:10564000D4EC01F0862BD8A0D9D7D4EC01F0D4EC5F
:1056500001F01200D4EC01F065C008F0096A060EF2
:10566000046E056AABEC01F001010A6F07C00BF193
:1056700000010101D40E006F570E016F0001D4EC40
:1056800001F00101040E0027000E01230001D4ECFB
:1056900001F001010A5100270B5101230001D4EC54
:1056A00001F0010E866F0400060E865DD8B077EF1C
:1056B0002BF0D4EC01F000C1F6FF01C1F7FF11ECB3
:1056C00001F001011D6F0001D4EC01F001011D5139
:1056D000000130EC00F0D4EC01F00101002B000ED1
:1056E00001230001D4EC01F0862BD8A0DCD7D4EC48
:1056F00001F01200D4EC01F014C108F0096A080EA0
:10570000046E056AABEC01F0876F0101040E006FB7
:10571000590E016F0001D4EC01F00101040E0027C5
:10572000000E01230001D4EC01F087510101002794
:10573000E86A01230001D4EC01F0010E866F040039
:10574000030E865DD8B0C3EF2BF0D4EC01F000C19E
:10575000F6FF01C1F7FF11EC01F001011D6F00011F
:10576000D4EC01F001011D51000130EC00F0D4EC4B
:1057700001F00101002B000E01230001D4EC01F027
:10578000862BD8A0DCD7D4EC01F01200D4EC01F0C9
:105790005265642020202020426C75652020202046
:1057A00059656C6C6F772020477265656E202020EC
:1057B000D4EC01F05A6F6D626965202048756D6107
:1057C0006E202020496E76616C202020496E766123
:1057D0006C202020D4EC01F04561676C65004A6FB5
:1057E0006B657200526176656E0053617267650089
:1057F000416E67656C00436F736D6F004765636B47
:105800006F00426C617A65004368616F7300467592
:1058100072792000466C61736800456C766973008C
:10582000486F6D65720053746F726D0048616269F4
:105830007400526562656C00526F6E696E004C7543
:10584000636B7900526164617200426C616465004F
:105850004E696E6A61004D6167696300476F6E7AD9
:105860006F00436F62726100506170707900526125
:105870006D626F00536E616B6500416C69656E000F
:105880005374696E67005A65656E6100427567738F
:1058900079005669706572004A6577656C004765E6
:1058A0006E6965004C6F67616E0052617A6F7200BD
:1058B000536C69636B0056656E6F6D00526F636B5E
:1058C0007900536162657200447573747900526F98
:1058D0006D656F004F7262697400566978656E007D
:1058E00054616E6B2000526F67756500536865697F
:1058F0006B0047697A6D6F0052696E676F00526581
:1059000072756E00D4EC01F02B2B2020202020207B
:105910004F4B2020202020204C4F202020202020D2
:105920002D2D2020202020200201326B336B020E0F
:10593000346F356B366B376B00010201230E386F05
:10594000000182829492FE0E30EC00F0010E30ECE9
:1059500000F0FE0E30EC00F0800E30EC00F0460E51
:1059600030EC00F0610E30EC00F0630E30EC00F033
:10597000740E30EC00F06F0E30EC00F0720E30EC74
:1059800000F0790E30EC00F0FE0E30EC00F0C00EAE
:1059900030EC00F0520E30EC00F0650E30EC00F010
:1059A000730E30EC00F0650E30EC00F0740E30EC4D
:1059B00000F0040E056EB00E19EC01F0320E876F88
:1059C000640E18EC01F0040081BEEFEF2CF08707A5
:1059D00004000C0E875DD8B0F3D728EF5DF082820B
:1059E0009492FE0E30EC00F0800E30EC00F04D0E84
:1059F00030EC00F0690E30EC00F06C0E30EC00F092
:105A0000650E30EC00F0730E30EC00F0540E30EC0C
:105A100000F0610E30EC00F0670E30EC00F0FE0E8E
:105A200030EC00F0C00E30EC00F0760E30EC00F000
:105A3000650E30EC00F0720E30EC00F0200E30EC11
:105A400000F0350E30EC00F02E0E30EC00F0360E8B
:105A500030EC00F0340E30EC00F0030E056E200E3A
:105A600019EC01F00201316BD20EA96E0F0EA86E77
:105A700000012DEC26F00F0E18EC01F00201396B3D
:105A80000F0E3A6F020E3B6F3C6B050E3D6F280EFA
:105A90003E6F1E0E3F6F020E406F030E416F040EED
:105AA000426F020E436F010E446F040E456F090EE4
:105AB000466F240E476F010E486F496B320E4A6FD6
:105AC000340E4B6F780E4C6F020E4D6F4E6B4F6B5A
:105AD000506B1A0E516F380E526F050E536F020E37
