:020000040000FA
:06000000006ACBEF01F0E5
:020008001200E4
:080018001200066E1CC0EAFF95
:100020001A50120FE96E1850EF121AC0E9FFEF14C0
:100030000EA0181810E0066607D00C040DE30A0E97
:1000400018EC01F00C5008D00628E86804E0062CF3
:1000500002D00D5001D00F1E0F32C8EF01F0E95051
:10006000096E8098809A809A9298929A929AF00E4D
:100070009216095000B221D03A0E036EFC0E26EC07
:1000800001F0330E086E30D8100E036E680E26ECA9
:1000900001F02AD8640E25EC01F026D8220E086E55
:1000A00023D8280E09D80C0E07D8010E05D8060E45
:1000B00003D80082095001D00080086E00A00BD048
:1000C000809A03080FE30ED8070E036ED00E26ECBD
:1000D00001F0D88012000080FE08D8B4C8EF01F00B
:1000E000808A00D0083A00A000908088F00E801628
:1000F00008500F0B80128098083A00B0F5D7640EB4
:1001000025EC01F0D8801200000915E00A6E02C04B
:10011000E9FF03C0EAFF026A036A0ABE07D0EE5095
:10012000026E0AA208D0EF50036E05D007EC01F072
:10013000EF14D8A4022AC8EF01F01CC0EAFF1AC0CD
:10014000E9FF04000DD8FDE216D8080E056E14D89C
:1001500007D80432052EFBD70FD80450C8EF01F0A2
:10016000120EE9261850EF121AC0E9FFEF1401B47D
:100170001818FF0F1200018C0134060BAA0FF66E3F
:10018000F76A010EF722F86A0900F550036E0800BD
:10019000F55001AC26EF01F0019CD8900332E83015
:1001A000D8900332E83026EF01F00199033900605E
:1001B0000CFD019E0B50D8B4018E050E0A6E270E61
:1001C000056E100E0CD8030E056EE80E08D8056AF1
:1001D000640E05D8056A0A0E02D8065008D0046ECF
:1001E0000750036E0650026E8CEC01F00250026E56
:1001F0000A4E019E0B5003E00A5CD8B01200025078
:10020000D8A4019E01BE1200300FC2EF01F0010E12
:100210000AB0E8440AB2E8440AB2E8440AB4E8384A
:100220001200F86A800EA66E0900F550C8EF01F0C2
:10023000056A046EE86A0406055AD8A0C8EF01F002
:10024000030E036EE60E02D8F5D7036AFB0F026EAB
:1002500000D0E86A01D00206035AFDE20400120051
:100260000A6E07EC01F0026A036A0AA6026E0AB679
:10027000036E0250C8EF01F06BEC01F003D0056A89
:1002800063EC01F004E00550036E0450026E02506E
:100290001200D89002360336FF0FFBE20250C8EF7F
:1002A00001F0D89003320232FF0FFBE20250C8EF98
:1002B00001F0046E020E14D0036A056A046E030E88
:1002C0000FD0036A056A046E010E0AD0046E060E92
:1002D00007D0036A056A046E040E02D0046E050E90
:1002E0000A6E0550035C02E10450025C040ED8B0B3
:1002F000010ED8B4020E0A14D8A4FF0EC8EF01F004
:10030000E866FF0E0214D8A4FF0EC8EF01F0021039
:10031000D8A4FF0EC8EF01F0076A066A100E086E37
:100320000334063607360450065E0550075A05E2C8
:100330000450062605500722D89002360336082EB0
:10034000EFD70250C8EF01F004500802F3CF06F0D7
:10035000F4CF07F005500902F3CF02F0F4CF03F019
:100360000802F3500726F4500222E86A03220450E0
:100370000902F3500726F4500222E86A03220650CD
:10038000C8EF01F0E96EFB6A1350FA6E1250F96E75
:10039000000104001200F28E04D0F2BE120070EFD1
:1003A00042F07F0EE96E0F0EEA6EED6AE950EA1038
:1003B000FCE1EF6A01010A0E306F0001010EC26E0E
:1003C0000F0EC16E3F0EC06E070EB46E8169AA6A31
:1003D000AB6AD66AC50ED56EF29ACF6ACE6A310E76
:1003E000CD6E9D909E90040ECA6EBD6A926AB10E4B
:1003F000936E500E946E040E816E600E826E1F829C
:100400001E92616AE80E806FD20EA96E1EEC26F075
:10041000A8CF19F20CEF02F0756A0101296B286B65
:10042000256B246B156B1E94136B0A0E2C6F020147
:10043000046B056B066B076B086B096B010E3A6E5C
:100440000001D8EC4DF0320EF3DE54EC4EF01E0EEF
:10045000EFDE040E3A6ED8EC4DF01E0EE9DE6F6A48
:100460000101066B076B646A3E6A0201146B156B2F
:10047000006B016B0C6B0D6B026B036B0E6B0F6BE8
:100480000101266B276B1E960001866B0400800E0F
:10049000865DD8B070EF02F0D8908635E96EEA6AD2
:1004A000EA36000EE926040EEA22EF6AEC6AD890DA
:1004B0008635E96EEA6AEA36000EE926050EEA227A
:1004C000EF6AEC6AD8908635E96EEA6AEA36000E81
:1004D000E926060EEA22EF6AEC6A862BD8A0D6D768
:1004E0001E94586A596A0101086B096B0001A1EC5E
:1004F00004F054EC4EF03CEC45F069C0CBFF68C012
:10050000BEFF51B0828051A0829083C082F066C04D
:1005100065F07AEC2AF0640E26240101046F000EC7
:100520002720056F640E7C24246E256A2536819C65
:10053000939C336A346A356A506A2F6B800EF26E70
:10054000F288F19CF292F29A04000201195100081B
:100550000001D8A4AFEF02F089EC2CF022D7040000
:100560001FA2E3EF02F0E86A81A8E868146EE86A67
:1005700081AAE868166E14C002F01650C1DE166E2D
:10058000176E040016501710D8B4D3EF02F0040011
:1005900081BED0EF02F089EC2CF003D7D3EF02F04C
:1005A000E4EC2CF0FED6040081B8DCEF02F0070E7C
:1005B0007D6E1F92AFEF48F0040081BAE3EF02F0C6
:1005C0001F924BEF51F004001FA244EF03F0828210
:1005D0009492818C939CFE0E30EC00F0010E30EC76
:1005E00000F0FE0E30EC00F0800E30EC00F0200E3B
:1005F00030EC00F0430E30EC00F04F0E30EC00F029
:100600004D0E30EC00F0420E30EC00F0410E30ECBC
:1006100000F0540E30EC00F0200E30EC00F0FE0E36
:1006200030EC00F0C00E30EC00F0200E30EC00F0AA
:10063000540E30EC00F02E0E30EC00F0410E30EC99
:1006400000F02E0E30EC00F0470E30EC00F02E0ED5
:1006500030EC00F0200E30EC00F0010E056E900E34
:1006600019EC01F082869496010E056E900E19EC3D
:1006700001F082969496010E056E900E19EC01F031
:10068000819C939C829294927D6A1F92FC6A0400E2
:100690007D500308D8B486EF4EF0E86A48B2E868A7
:1006A000146E83510008D8A4E868FF0A166E14C0BF
:1006B00002F0165025DE166E176E04001650171045
:1006C000D8B46FEF03F004004AAC6BEF03F0ACEC6E
:1006D0004DF06DEF03F065EC4DF071EF03F065EC5C
:1006E0004DF0010E056EF40E19EC01F05BEF05F014
:1006F000E86A48B2E868146E83510008D8A4E86834
:10070000FF0A166E14C002F0165080EC01F0166E4F
:10071000176E040016501710D8B493EF03F0ACEC2A
:100720004DF095EF03F065EC4DF0010E056EF40E03
:1007300019EC01F065EF05F082929492E86A48B2F4
:10074000E868146E83510008D8A4E868FF0A166EA2
:1007500014C002F0165080EC01F0166E176E040003
:1007600016501710D8B4C1EF03F004004AACBDEF27
:1007700003F0ACEC4DF0BFEF03F065EC4DF0C3EFD0
:1007800003F065EC4DF0030E056EE80E19EC01F078
:100790001F92FC6A5BEF05F01BEC0DF0020EA96ED8
:1007A00033C2A8FF22EC26F00F0E18EC01F031EC5A
:1007B0000CF0010EA96E32C2A8FF22EC26F00F0E3B
:1007C00018EC01F0FE0E30EC00F0010E30EC00F001
:1007D000FE0E30EC00F0800E30EC00F0420E30ECFB
:1007E00000F0610E30EC00F0740E30EC00F0740E8E
:1007F00030EC00F0650E30EC00F0720E30EC00F0E2
:10080000790E30EC00F004002D500008D8A41BEF46
:1008100004F0FE0E30EC00F0C00E30EC00F04E0E96
:1008200030EC00F0690E30EC00F04D0E30EC00F0D2
:10083000480E30EC00F004002D500108D8A433EF2E
:1008400004F0FE0E30EC00F0C00E30EC00F04C0E68
:1008500030EC00F0690E30EC00F0500E30EC00F09F
:100860006F0E30EC00F004002D500208D8A44BEFBE
:1008700004F0FE0E30EC00F0C00E30EC00F0360E4E
:1008800030EC00F0780E30EC00F0410E30EC00F06F
:10089000410E30EC00F0C80E18EC01F0810E1A6E1B
:1008A0000F0E1C6E100E186E0E6A0A0E0C6E0A0EDB
:1008B0000D6E010E0F6E33500DEC00F0336ED8B09C
:1008C0008AEF04F0810E1A6E0F0E1C6E200E186E49
:1008D0000E6A0A0E0C6E0A0E0D6E010E0F6E35506A
:1008E0000DEC00F0356ED8B08AEF04F0810E1A6E70
:1008F0000F0E1C6E800E186E0E6A0C680A0E0D6EBE
:10090000010E0F6E34500DEC00F0346ED8B093EF42
:1009100004F0C4D72D2A0400030E2D5CD8A092EF5A
:1009200004F02D6A4FD72DC036F2050EA96E36C2DF
:10093000A8FF22EC26F00F0E18EC01F01F920AEF30
:1009400002F0AA6A576A0400290E575CD8B0B8EFC3
:1009500004F057C0A9FF1EEC26F05750310FE96E86
:10096000020EEA6AEA22A8CFEFFF572AD8A0EBD7F7
:1009700031C293F032C283F083510008D8A4E868F2
:10098000FF0A146E83510208D8A4E868FF0A166EA5
:1009900014C002F0165087EC01F0166E176E0400BA
:1009A00016501710D8B4D8EF04F0616ADAEF04F0EB
:1009B000010E616E33C266F034C252F035C24EF0A1
:1009C00036C22DF038C269F039C276F03AC278F0FA
:1009D0003BC26AF049EC47F06BC079F03CC24CF086
:1009E0003DC24DF03EC246F03FC239F040C245F034
:1009F00041C232F042C286F08EEC47F043C26DF045
:100A000044C251F045C26AF049EC47F06BC068F04F
:100A100046C238F047C286F0B2EC47F048C272F0E6
:100A200049C22CF04AC27CF04BC248F04CC249F09B
:100A30004DC24FF04EC27BF04FC23DF050C28BF022
:100A400051C25BF052C292F053C291F054C273F0A3
:100A500055C25CF056C22AF057C274F058C24AF030
:100A600059C27AF05BC062F0040048A252EF05F070
:100A70000400010E835DD8A042EF05F0010E836FE4
:100A800052EF05F092C086F0B2EC47F091C04DF005
:100A9000010E466EC80E396E456A010E6D6E626AB1
:100AA00049923D6A040046500008D8A45AEF05F068
:100AB000010E466E1200829294920400010E7B5C3D
:100AC000D8A065EF05F06EEC4BF0FC6A04007D5099
:100AD0000308D8B486EF4EF047EC4CF0CDEC01F0B3
:100AE00004009EA078EF05F0CDEC01F04BEC26F071
:100AF000CDEC01F004007D500308D8B486EF4EF031
:100B0000CDEC01F0040081AE6AEF08F0CDEC01F00D
:100B1000040081AADEEF09F0CDEC01F0810E1A6E1F
:100B20000F0E1C6E100E186E0E6A0C680A0E0D6EFB
:100B3000010E0F6E34500DEC00F0346ED8B0A9EFFA
:100B400005F0CDEC01F001011C6B0001CDEC01F0D2
:100B5000C5D7CDEC01F0E5EC4CF0CDEC01F0040094
:100B60002F500108D8B4BAD7CDEC01F0FE0E30EC0E
:100B700000F0010E30EC00F0CDEC01F024C002F0EA
:100B800025C003F0056A640E5EEC01F0D8A4D1EF35
:100B900005F0CDEC01F0286A296ACDEC01F0DBEF1D
:100BA00005F0CDEC01F0640E245C286E000E255893
:100BB000296ECDEC01F0CDEC01F0FE0E30EC00F032
:100BC000800E30EC00F0410E30EC00F0720E30EC94
:100BD00000F06D0E30EC00F0720E30EC00F0200EE4
:100BE00030EC00F0CDEC01F0040049A209EF06F072
:100BF000CDEC01F0030E0B6E28C006F029C007F003
:100C00005E0E126E136AD9EC00F0CDEC01F016EF17
:100C100006F0CDEC01F04F0E30EC00F0460E30EC5B
:100C200000F0460E30EC00F0CDEC01F0CDEC01F020
:100C3000FE0E30EC00F0C00E30EC00F04D0E30EC4B
:100C400000F0610E30EC00F0670E30EC00F0730E37
:100C500030EC00F0200E30EC00F0030E0B6E63C0A1
:100C600006F0076A5E0E126E136AD9EC00F0CDEC46
:100C700001F004009EA090EF06F0CDEC01F04BECEB
:100C800026F0CDEC01F0040075500008D8A490EFD8
:100C900006F0CDEC01F0040049A290EF06F0CDEC97
:100CA00001F024C002F025C003F0056A640E5EEC7A
:100CB00001F0D8A464EF06F0CDEC01F0286A296AAF
:100CC000CDEC01F06EEF06F0CDEC01F0640E245C8B
:100CD000286E000E2558296ECDEC01F0CDEC01F008
:100CE000FE0E30EC00F0800E30EC00F0410E30ECE7
:100CF00000F0720E30EC00F06D0E30EC00F0720E71
:100D000030EC00F0200E30EC00F0030E0B6E28C02B
:100D100006F029C007F05E0E126E136AD9EC00F0DF
:100D2000CDEC01F0040081AED0D6CDEC01F0040092
:100D300081AADEEF09F0CDEC01F0810E1A6E0F0EE4
:100D40001C6E100E186E0E6A0C680A0E0D6E010EE7
:100D50000F6E34500DEC00F0346ED8B0BBEF06F0DF
:100D6000CDEC01F004007D500308D8B486EF4EF0BE
:100D7000CDEC01F07CD7CDEC01F0E5EC4CF0CDEC06
:100D800001F004002F500108D8B4EED6CDEC01F0EC
:100D9000FE0E30EC00F0010E30EC00F0CDEC01F076
:100DA000FE0E30EC00F0800E30EC00F0420E30EC25
:100DB00000F0610E30EC00F0740E30EC00F0740EB8
:100DC00030EC00F03A0E30EC00F0200E30EC00F089
:100DD000CDEC01F0020E0B6E16C106F0076A5E0E36
:100DE000126E136AD9EC00F0CDEC01F0FE0E30EC7F
:100DF00000F0C00E30EC00F0540E30EC00F02B0E82
:100E000030EC00F0030E0B6E28C106F0076A5E0E90
:100E1000126E136AD9EC00F03A0E30EC00F0020EBC
:100E20000B6E29C106F0076A5E0E126E136AD9ECCA
:100E300000F0CDEC01F004009EA076EF07F0CDECC1
:100E400001F04BEC26F0CDEC01F0040075500008E9
:100E5000D8A476EF07F0CDEC01F0FE0E30EC00F0F8
:100E6000800E30EC00F0420E30EC00F0610E30EC01
:100E700000F0740E30EC00F0740E30EC00F03A0E1E
:100E800030EC00F0200E30EC00F0CDEC01F0020E62
:100E90000B6E16C106F0076A5E0E126E136AD9EC6D
:100EA00000F0CDEC01F0FE0E30EC00F0C00E30ECA6
:100EB00000F0540E30EC00F02B0E30EC00F0030E7E
:100EC0000B6E28C106F0076A5E0E126E136AD9EC2B
:100ED00000F03A0E30EC00F0020E0B6E29C106F065
:100EE000076A5E0E126E136AD9EC00F0CDEC01F0C9
:100EF000040081AE65EF05F0CDEC01F0040081AA9D
:100F0000DEEF09F0CDEC01F0810E1A6E0F0E1C6EB3
:100F1000100E186E0E6A0C680A0E0D6E010E0F6E22
:100F200034500DEC00F0346ED8B0A2EF07F0CDECE9
:100F300001F004007D500308D8B486EF4EF0CDECEC
:100F400001F077D7CDEC01F0E5EC4CF0CDEC01F001
:100F500004002F500108D8B419D7CDEC01F0FE0ED3
:100F600030EC00F0010E30EC00F0CDEC01F00400AC
:100F700062501A08D8A4E1EF07F0CDEC01F0FE0EA4
:100F800030EC00F0800E30EC00F0520E30EC00F04F
:100F9000650E30EC00F0730E30EC00F0700E30ECAB
:100FA00000F0200E30EC00F0550E30EC00F04E0E4C
:100FB00030EC00F04C0E30EC00F0CDEC01F004EF22
:100FC00008F0CDEC01F0FE0E30EC00F0800E30ECBD
:100FD00000F0520E30EC00F0650E30EC00F0730EB5
:100FE00030EC00F0700E30EC00F0200E30EC00F031
:100FF000030E0B6E62C006F0076A5E0E126E136A75
:10100000D9EC00F0CDEC01F0CDEC01F0FE0E30ECAF
:1010100000F0C00E30EC00F0460E30EC00F06C0E2C
:1010200030EC00F0610E30EC00F0670E30EC00F0B8
:10103000200E30EC00F0030E0B6E26C106F0076A9E
:101040005E0E126E136AD9EC00F0CDEC01F00400D4
:101050009EA02FEF08F0CDEC01F04BEC26F0CDEC8C
:1010600001F0040081AE65EF05F0CDEC01F0040065
:1010700081AADEEF09F0CDEC01F0810E1A6E0F0EA1
:101080001C6E100E186E0E6A0C680A0E0D6E010EA4
:101090000F6E34500DEC00F0346ED8B05BEF08F0FA
:1010A000CDEC01F004007D500308D8B486EF4EF07B
:1010B000CDEC01F0CAD7CDEC01F0E5EC4CF0CDEC75
:1010C00001F004002F500108D8B447D7CDEC01F04F
:1010D00065EF05F0CDEC01F082929492CDEC01F039
:1010E0000400010E6F5CD8B07EEF08F0CDEC01F08B
:1010F00092EC4DF0CDEC01F0B8EF09F0CDEC01F041
:1011000004009EA088EF08F0CDEC01F04BEC26F037
:10111000CDEC01F00101062B000E07230001CDEC00
:1011200001F0040038A2BFEF08F0CDEC01F079C067
:10113000BEFFCDEC01F08290CDEC01F078C02BF039
:10114000CDEC01F0D9EC45F0CDEC01F0050E18EC3A
:1011500001F0CDEC01F068C0BEFFCDEC01F051B064
:10116000828051A08290CDEC01F04DC02BF0CDECEF
:1011700001F0D9EC45F0CDEC01F0C9EF08F0CDEC71
:1011800001F04DC02BF0CDEC01F0D9EC45F0CDECE9
:1011900001F0CDEC01F0040038A0D5EF08F0CDEC63
:1011A00001F082869496CDEC01F0CDEC01F00400C4
:1011B00076500008D8A4FAEF08F0CDEC01F0110E3B
:1011C000226E236ACDEC01F0220E206E216ACDEC56
:1011D00001F0020E3A6ECDEC01F0D8EC4DF0CDEC02
:1011E00001F0190E18EC01F0CDEC01F0F8EC4DF027
:1011F000CDEC01F0CDEC01F0040076500108D8A44C
:1012000021EF09F0CDEC01F0F90E226E010E236EF4
:10121000CDEC01F0040E206E020E216ECDEC01F03B
:10122000020E3A6ECDEC01F0D8EC4DF0CDEC01F0B1
:10123000190E18EC01F0CDEC01F0F8EC4DF0CDEC0E
:1012400001F0CDEC01F0040076500208D8A448EF7C
:1012500009F0CDEC01F02D0E226E020E236ECDECC6
:1012600001F0380E206E020E216ECDEC01F0020E60
:101270003A6ECDEC01F0D8EC4DF0CDEC01F0190E4A
:1012800018EC01F0CDEC01F0F8EC4DF0CDEC01F0F4
:10129000CDEC01F082969496CDEC01F00400FF0EA7
:1012A0006F5CD8B05DEF09F0CDEC01F06F06CDECCE
:1012B00001F0D0EC4CF0CDEC01F0CDEC01F0010EE2
:1012C000406E04000B0E405CD8B074EF09F0CDEC1A
:1012D00001F03BC041F0CDEC01F03EEC4DF0CDEC27
:1012E00001F0402AD8A0EDD7CDEC01F004006F50FA
:1012F0000008D8B4B8EF09F0CDEC01F00400455077
:101300000108D8A499EF09F0CDEC01F001011C2BE4
:101310000001CDEC01F0040001011C51325C000120
:10132000D8B4B8EF09F0CDEC01F06EEF05F0CDECDC
:1013300001F0CDEC01F045500208D8A4E868FF0A9E
:10134000146EE86A84A6E868166E14C002F016509F
:1013500087EC01F0166E176E040016501710D8B403
:10136000B8EF09F0CDEC01F06EEF05F0CDEC01F037
:10137000CDEC01F004009EA0C2EF09F0CDEC01F02D
:101380004BEC26F0CDEC01F0010E8D6F0400C90E80
:101390008D5DD8B0D5EF09F0CDEC01F044EC26F02E
:1013A000CDEC01F08D2BD8A0F1D7CDEC01F00400ED
:1013B00081AEDED7CDEC01F06EEF05F0CDEC01F0A3
:1013C00004006F50465CD8B460EF0BF0CDEC01F038
:1013D00010C102F011C103F0056A000E59EC01F0D2
:1013E000D8A460EF0BF0CDEC01F06F500101102795
:1013F000E86A11230001CDEC01F06F6ACDEC01F039
:1014000004006D500008D8B4D8EF0AF0CDEC01F01C
:10141000FE0E30EC00F0010E30EC00F0CDEC01F0EF
:10142000040048B637EF0AF0CDEC01F0FE0E30ECC8
:1014300000F0800E30EC00F0410E30EC00F06D0E4C
:1014400030EC00F06D0E30EC00F06F0E30EC00F080
:10145000040E0B6E10C106F011C107F05E0E126E85
:10146000136AD9EC00F0CDEC01F056EF0AF0CDECA8
:1014700001F0FE0E30EC00F0800E30EC00F0200E9B
:1014800030EC00F0520E30EC00F0650E30EC00F065
:101490006C0E30EC00F06F0E30EC00F0610E30ECB2
:1014A00000F0640E30EC00F0CDEC01F0CDEC01F07A
:1014B000310E226E236ACDEC01F03C0E206E216AC3
:1014C000CDEC01F0020E3A6ECDEC01F0D8EC4DF00F
:1014D000CDEC01F0190E18EC01F0CDEC01F0F8ECB8
:1014E0004DF0CDEC01F00101640E2F6F0001CDEC49
:1014F00001F001010C0E2E6F0001CDEC01F0FE0E8B
:1015000030EC00F0C00E30EC00F0CDEC01F0010E3C
:10151000406E04004C0E405CD8B0A4EF0AF0CDEC55
:1015200001F06DC041F0CDEC01F03EEC4DF0CDECA2
:1015300001F004007D500308D8B486EF4EF0CDECE6
:1015400001F0402AD8A0E5D7CDEC01F004009EA020
:10155000AEEF0AF0CDEC01F04BEC26F0CDEC01F053
:1015600001012F070001CDEC01F001012E07000160
:10157000CDEC01F0040001012E5100080001D8A4B7
:10158000CFEF0AF0CDEC01F0FF0E30EC00F0CDEC27
:1015900001F001010C0E2E6F0001CDEC01F0CDEC3D
:1015A00001F00400010E01012F5D0001D8B0ADD79C
:1015B000CDEC01F010C102F011C103F046503FEC38
:1015C00001F06F6ECDEC01F06F500101105FD8A0FB
:1015D00011070001CDEC01F010C102F011C103F0C0
:1015E00046C004F0056A8CEC01F0146E03C015F0DF
:1015F000630E026E036A15C005F0145040EC01F052
:10160000636ECDEC01F0040048A619EF0BF0CDECB1
:1016100001F0630E636ECDEC01F00101E70E106F77
:10162000030E116F0001CDEC01F046C06FF0CDEC60
:1016300001F0CDEC01F0040076500208D8B45CEF64
:101640000BF0CDEC01F0040076500008D8A435EF83
:101650000BF0CDEC01F03E0E226E236ACDEC01F0D2
:101660004F0E206E216ACDEC01F0CDEC01F00400AC
:1016700076500108D8A44BEF0BF0CDEC01F0060E2C
:10168000226E020E236ECDEC01F0110E206E020EC2
:10169000216ECDEC01F0CDEC01F0020E3A6ECDECF6
:1016A00001F0D8EC4DF0CDEC01F0190E18EC01F082
:1016B000CDEC01F0F8EC4DF0CDEC01F065EF05F06C
:1016C000CDEC01F0FA0E416ECDEC01F03EEC4DF0A8
:1016D000CDEC01F065EF05F0FE0E30EC00F0010EF0
:1016E00030EC00F0FE0E30EC00F0800E30EC00F03C
:1016F000410E30EC00F0750E30EC00F0740E30EC62
:1017000000F06F0E30EC00F0520E30EC00F0650E81
:1017100030EC00F0730E30EC00F0700E30EC00F0A6
:1017200004002C500008D8A4B0EF0BF0FE0E30ECF3
:1017300000F0C00E30EC00F04D0E30EC00F0610E09
:1017400030EC00F06E0E30EC00F0750E30EC00F076
:10175000610E30EC00F06C0E30EC00F0D8EF0BF0C6
:10176000FE0E30EC00F0C40E30EC00F0530E30EC06
:1017700000F0650E30EC00F0630E30EC00F02CC091
:1017800008F0096A050E046E056AA4EC01F0866F84
:10179000FE0E30EC00F0C00E30EC00F0030E0B6ECD
:1017A00086C006F0076A5E0E126E136AD9EC00F06E
:1017B000C80E18EC01F0810E1A6E0F0E1C6E100E82
:1017C000186E0E6A0A0E0C6E0A0E0D6E010E0F6E6A
:1017D00033500DEC00F0336ED8B017EF0CF0810EE3
:1017E0001A6E0F0E1C6E200E186E0E6A0A0E0C6E0C
:1017F0000A0E0D6E010E0F6E33500DEC00F0336EBD
:10180000D8B01FEF0CF0810E1A6E0F0E1C6E800EFA
:10181000186E0E6A0C680A0E0D6E010E0F6E3450B3
:101820000DEC00F0346ED8B02CEF0CF0C4D72C2A9D
:101830000400250E2C5CD8B02AEF0CF04DD7040024
:101840002C500008D8A428EF0CF0240E2C6E44D79E
:101850002C0642D72C6A40D72CC049F2B9EC46F08E
:101860001200010E576E556A030E546E010E566E2D
:10187000040048A253EF0CF0010E546E5750310F84
:10188000E96E020EEA6AEA22EFCF14F00400020EBB
:10189000145CD8A053EF0CF05750310FE96E020ED4
:1018A000EA6AEA22EF6AFE0E30EC00F0010E30EC3C
:1018B00000F0FE0E30EC00F0800E30EC00F0540E24
:1018C00030EC00F0650E30EC00F0610E30EC00F012
:1018D0006D0E30EC00F0490E30EC00F0440E30ECB0
:1018E00000F05750310FE96E020EEA6AEA22EFCF9C
:1018F00082F0FE0E30EC00F0C00E30EC00F001EC97
:101900002AF0C80E18EC01F0810E1A6E0F0E1C6E34
:10191000100E186E0E6A0C680A0E0D6E010E0F6E18
:1019200035500DEC00F0356ED8B0BEEF0CF0810EE6
:101930001A6E0F0E1C6E200E186E0E6A0C680A0EC0
:101940000D6E010E0F6E34500DEC00F0346ED8B0F9
:10195000E2EF0CF0810E1A6E0F0E1C6E800E186EE8
:101960000E6A0C680A0E0D6E010E0F6E33500DECF0
:1019700000F0336ED8B01AEF0DF0C6D75750310FC4
:10198000E96E020EEA6AEA22EFCF14F014505624F0
:10199000146E156A15365750310FE96E020EEA6A59
:1019A000EA2214C0EFFF5750310FE96E020EEA6AC7
:1019B000EA22EFCF14F004001450545CD8A011EFC9
:1019C0000DF08FD75750310FE96E020EEA6AEA2206
:1019D000EFCF14F004001450555CD8A4FAEF0CF0CB
:1019E0005750310FE96E020EEA6AEA2254C0EFFF47
:1019F00010EF0DF05750310FE96E020EEA6AEA223D
:101A0000EFCF14F05650145C146E156AD8A015066A
:101A10005750310FE96E020EEA6AEA2214C0EFFF56
:101A200060D75750310FE96E020EEA6AEA2255C0BC
:101A3000EFFF57D71200020E576E556A310E546EE3
:101A4000010E566EFE0E30EC00F0010E30EC00F090
:101A5000FE0E30EC00F0800E30EC00F0500E30EC5A
:101A600000F06C0E30EC00F0610E30EC00F0790EFE
:101A700030EC00F0650E30EC00F0720E30EC00F04F
:101A8000490E30EC00F0440E30EC00F0C80E18ECBB
:101A900001F0040081A8FAD7C80E18EC01F0FE0E80
:101AA00030EC00F0C00E30EC00F0030E0B6E57501F
:101AB000310FE96E020EEA6AEA22EFCF14F014C089
:101AC00006F0076A5E0E126E136AD9EC00F05750EA
:101AD000310FE96E020EEA6AEA22EFCF65F0FE0EE0
:101AE00030EC00F0C30E30EC00F01FEC2BF0C80E11
:101AF00018EC01F0810E1A6E0F0E1C6E100E186E8F
:101B00000E6A0A0E0C6E0A0E0D6E010E0F6E335029
:101B10000DEC00F0336ED8B0B6EF0DF0810E1A6EFA
:101B20000F0E1C6E200E186E0E6A0A0E0C6E0A0E38
:101B30000D6E010E0F6E33500DEC00F0336ED8B009
:101B4000DAEF0DF0810E1A6E0F0E1C6E800E186EFD
:101B50000E6A0C680A0E0D6E010E0F6E34500DECFD
:101B600000F0346ED8B011EF0EF0C4D75750310FDB
:101B7000E96E020EEA6AEA22EFCF14F014505624FE
:101B8000146E156A15365750310FE96E020EEA6A67
:101B9000EA2214C0EFFF5750310FE96E020EEA6AD5
:101BA000EA22EFCF14F004001450545CD8A008EFE0
:101BB0000EF075D75750310FE96E020EEA6AEA222D
:101BC000EFCF14F004001450555CD8A4F1EF0DF0E1
:101BD0005750310FE96E020EEA6AEA2254C0EFFF55
:101BE0005ED75750310FE96E020EEA6AEA22EFCF54
:101BF00014F05650145C146E156AD8A01506575090
:101C0000310FE96E020EEA6AEA2214C0EFFF47D7ED
:101C10005750310FE96E020EEA6AEA2255C0EFFF13
:101C20003ED71200FE0E30EC00F0010E30EC00F05A
:101C3000FE0E30EC00F0800E30EC00F0530E30EC75
:101C400000F06F0E30EC00F0750E30EC00F06E0E10
:101C500030EC00F0640E30EC00F0730E30EC00F06D
:101C6000040076500008D8A454EF0EF0FE0E30ECBD
:101C700000F0C00E30EC00F04D0E30EC00F0690EBC
:101C800030EC00F06C0E30EC00F02D0E30EC00F07B
:101C9000530E30EC00F0690E30EC00F06D0E30ECBD
:101CA00000F0200E30EC00F0040076500108D8A4BB
:101CB00078EF0EF0FE0E30EC00F0C00E30EC00F0CD
:101CC000530E30EC00F0630E30EC00F0690E30EC97
:101CD00000F02D0E30EC00F0460E30EC00F0690EF6
:101CE00030EC00F0200E30EC00F0200E30EC00F074
:101CF000040076500208D8A49CEF0EF0FE0E30ECE3
:101D000000F0C00E30EC00F0530E30EC00F0690E25
:101D100030EC00F06C0E30EC00F0650E30EC00F0B2
:101D20006E0E30EC00F0630E30EC00F0650E30EC1F
:101D300000F0720E30EC00F0C80E18EC01F0810ECD
:101D40001A6E0F0E1C6E100E186E0E6A0C680A0EBC
:101D50000D6E010E0F6E33500DEC00F0336ED8B0E7
:101D6000C6EF0EF0810E1A6E0F0E1C6E800E186EEE
:101D70000E6A0C680A0E0D6E010E0F6E34500DECDB
:101D800000F0346ED8B0D1EF0EF0D9D7762A040027
:101D900076500308D8A4CEEF0EF0766A76C039F2FA
:101DA0005FD7B9EC46F01200FE0E30EC00F0010EE9
:101DB00030EC00F0FE0E30EC00F0800E30EC00F065
:101DC000460E30EC00F0720E30EC00F06E0E30EC8F
:101DD00000F0640E30EC00F0460E30EC00F0690EBE
:101DE00030EC00F0720E30EC00F0650E30EC00F0DC
:101DF00048B41F8648A41F96A6EC20F01FB648845E
:101E00001FA64894B9EC46F01200FE0E30EC00F02C
:101E1000010E30EC00F0FE0E30EC00F0800E30ECE5
:101E200000F0480E30EC00F0690E30EC00F0740E5B
:101E300030EC00F0460E30EC00F06C0E30EC00F0B0
:101E4000610E30EC00F0730E30EC00F0680E30ECF8
:101E500000F038B61F8638A61F96A6EC20F01FB6F5
:101E600038861FA63896B9EC46F01200FE0E30EC0C
:101E700000F0010E30EC00F0FE0E30EC00F0800EB1
:101E800030EC00F0420E30EC00F06F0E30EC00F061
:101E9000640E30EC00F0790E30EC00F0410E30ECC6
:101EA00000F0720E30EC00F06D0E30EC00F0720EAF
:101EB00030EC00F049B21F8649A21F96A6EC20F034
:101EC0001FB649821FA64992B9EC46F01200FE0ED9
:101ED00030EC00F0010E30EC00F0FE0E30EC00F0C3
:101EE000800E30EC00F0530E30EC00F0520E30EC6F
:101EF00000F0200E30EC00F04B0E30EC00F0690EDC
:101F000030EC00F06C0E30EC00F06C0E30EC00F0B9
:101F100038B21F8638A21F96A6EC20F01FB6388272
:101F20001FA63892B9EC46F01200FE0E30EC00F01D
:101F3000010E30EC00F0FE0E30EC00F0800E30ECC4
:101F400000F0550E30EC00F06E0E30EC00F06C0E30
:101F500030EC00F0200E30EC00F0410E30EC00F0E0
:101F60006D0E30EC00F06D0E30EC00F06F0E30ECCA
:101F700000F048B61F8648A61F96FEEC20F01FB65C
:101F800048861FA64896B9EC46F01200FE0E30ECCB
:101F900000F0010E30EC00F01C0E576E556A170E63
:101FA000546E010E566EFE0E30EC00F0800E30ECDA
:101FB00000F0480E30EC00F0690E30EC00F0740ECA
:101FC00030EC00F0440E30EC00F0650E30EC00F028
:101FD0006C0E30EC00F0610E30EC00F0790E30EC5D
:101FE00000F0FE0E30EC00F0C00E30EC00F004000B
:101FF0004F500008D8A414EF10F02E0E30EC00F073
:10200000300E30EC00F0300E30EC00F0200E30ECF2
:1020100000F0530E30EC00F0650E30EC00F0630E73
:1020200030EC00F087EF10F004004F500108D8A406
:1020300031EF10F02E0E30EC00F0320E30EC00F0EC
:10204000350E30EC00F0200E30EC00F0530E30EC8A
:1020500000F0650E30EC00F0630E30EC00F087EF1E
:1020600010F004004F500208D8A44EEF10F02E0ECE
:1020700030EC00F0350E30EC00F0300E30EC00F0BB
:10208000200E30EC00F0530E30EC00F0650E30EC1A
:1020900000F0630E30EC00F087EF10F004004F50BA
:1020A0000308D8A46BEF10F02E0E30EC00F0370EC2
:1020B00030EC00F0350E30EC00F0200E30EC00F08B
:1020C000530E30EC00F0650E30EC00F0630E30EC97
:1020D00000F087EF10F0030E4F5C866F020E0B6E60
:1020E00086C006F0076A5E0E126E136AD9EC00F025
:1020F000200E30EC00F0200E30EC00F0530E30ECEF
:1021000000F0650E30EC00F0630E30EC00F0C80E0D
:1021100018EC01F0810E1A6E0F0E1C6E100E186E68
:102120000E6A0A0E0C6E0A0E0D6E010E0F6E335003
:102130000DEC00F0336ED8B0C6EF10F0810E1A6EC1
:102140000F0E1C6E200E186E0E6A0A0E0C6E0A0E12
:102150000D6E010E0F6E33500DEC00F0336ED8B0E3
:10216000CFEF10F0810E1A6E0F0E1C6E800E186EDF
:102170000E6A0C680A0E0D6E010E0F6E34500DECD7
:1021800000F0346ED8B0DEEF10F0C4D756504F26B2
:1021900004004F50545CD8A0DBEF10F022D70400AD
:1021A0004F50555CD8A4D8EF10F054C04FF019D759
:1021B00056504F5E16D755C04FF013D75750310FBA
:1021C000E96E020EEA6AEA224FC0EFFFB9EC46F070
:1021D0001200FE0E30EC00F0010E30EC00F0FE0EAE
:1021E00030EC00F0800E30EC00F0490E30EC00F0E6
:1021F000520E30EC00F0200E30EC00F0500E30ECBF
:1022000000F06F0E30EC00F0770E30EC00F0650E51
:1022100030EC00F0720E30EC00F004005150010878
:10222000D8A430EF11F0FE0E30EC00F0C00E30EC10
:1022300000F04F0E30EC00F0750E30EC00F0740E34
:1022400030EC00F0640E30EC00F06F0E30EC00F07B
:102250006F0E30EC00F0720E30EC00F04BEF11F02E
:10226000FE0E30EC00F0C00E30EC00F0490E30EC09
:1022700000F06E0E30EC00F0640E30EC00F06F0EEB
:1022800030EC00F06F0E30EC00F0720E30EC00F02D
:10229000200E30EC00F0C80E18EC01F0810E1A6E22
:1022A0000F0E1C6E100E186E0E6A0C680A0E0D6E64
:1022B000010E0F6E33500DEC00F0336ED8B075EF99
:1022C00011F0810E1A6E0F0E1C6E800E186E0E6AC3
:1022D0000C680A0E0D6E010E0F6E34500DEC00F0FE
:1022E000346ED8B081EF11F0D9D7040051500108F5
:1022F000D8A47EEF11F0516A80EF11F0010E516EFB
:102300008CD7B9EC46F01200200E576E556A1A0EA3
:10231000546E010E566EFE0E30EC00F0010E30ECE5
:1023200000F0FE0E30EC00F0800E30EC00F0230EDA
:1023300030EC00F0520E30EC00F0650E30EC00F0A6
:10234000730E30EC00F0700E30EC00F0610E30ECEB
:1023500000F0770E30EC00F06E0E30EC00F05750CD
:10236000310FE96E020EEA6AEA225BC0EFFF2CEC45
:102370001EF05750310FE96E020EEA6AEA22EFCFE3
:102380005BF0B9EC46F01200240E576E556A640EED
:10239000546E050E566EFE0E30EC00F0010E30EC61
:1023A00000F0FE0E30EC00F0800E30EC00F04D0E30
:1023B00030EC00F0650E30EC00F0640E30EC00F014
:1023C000690E30EC00F0200E30EC00F0420E30ECE4
:1023D00000F06F0E30EC00F0780E30EC00F0FE0EE6
:1023E00030EC00F0C40E30EC00F0500E30EC00F099
:1023F000740E30EC00F0730E30EC00F0FE0E30EC9A
:1024000000F0C00E30EC00F0030E0B6E5CC006F066
:10241000076A5E0E126E136AD9EC00F05750310F46
:10242000E96E020EEA6AEA225CC0EFFFA9EC1CF03A
:102430005750310FE96E020EEA6AEA22EFCF5CF0E4
:10244000B9EC46F01200250E576E556A320E546EE6
:10245000010E566EFE0E30EC00F0800E30EC00F0F7
:10246000410E30EC00F06D0E30EC00F06D0E30ECF3
:1024700000F06F0E30EC00F0200E30EC00F0420E59
:1024800030EC00F06F0E30EC00F0780E30EC00F025
:10249000FE0E30EC00F0C40E30EC00F0430E30ECD9
:1024A00000F06C0E30EC00F0700E30EC00F0FE0E20
:1024B00030EC00F0C00E30EC00F0030E0B6E2AC0C2
:1024C00006F0076A5E0E126E136AD9EC00F05750E0
:1024D000310FE96E020EEA6AEA222AC0EFFFA9EC88
:1024E0001CF05750310FE96E020EEA6AEA22EFCF74
:1024F0002AF0B9EC46F01200260E576E556A640EAB
:10250000546E010E566EFE0E30EC00F0010E30ECF3
:1025100000F0FE0E30EC00F0800E30EC00F0410ECA
:1025200030EC00F0720E30EC00F06D0E30EC00F08C
:10253000720E30EC00F0200E30EC00F0420E30EC69
:1025400000F06F0E30EC00F0780E30EC00F0FE0E74
:1025500030EC00F0C40E30EC00F0500E30EC00F027
:10256000740E30EC00F0730E30EC00F0FE0E30EC28
:1025700000F0C00E30EC00F0030E0B6E74C006F0DD
:10258000076A5E0E126E136AD9EC00F05750310FD5
:10259000E96E020EEA6AEA2274C0EFFFA9EC1CF0B1
:1025A0005750310FE96E020EEA6AEA22EFCF74F05B
:1025B000B9EC46F012001D0E576E556A780E546E37
:1025C000050E566EFE0E30EC00F0010E30EC00F001
:1025D000FE0E30EC00F0800E30EC00F0530E30ECCC
:1025E00000F0740E30EC00F0610E30EC00F0720E72
:1025F00030EC00F0740E30EC00F0440E30EC00F0E3
:102600006C0E30EC00F0790E30EC00F0FE0E30EC89
:1026100000F0C40E30EC00F0530E30EC00F0650E0C
:1026200030EC00F0630E30EC00F05750310FE96EE3
:10263000020EEA6AEA227BC0EFFFA9EC1CF05750B9
:10264000310FE96E020EEA6AEA22EFCF7BF0B9ECB5
:1026500046F012001F0E576E556A780E546E010E2A
:10266000566EFE0E30EC00F0010E30EC00F0FE0E67
:1026700030EC00F0800E30EC00F0470E30EC00F053
:10268000610E30EC00F06D0E30EC00F0650E30ECB9
:1026900000F0540E30EC00F0690E30EC00F06D0EDE
:1026A00030EC00F0650E30EC00F0FE0E30EC00F087
:1026B000C40E30EC00F04D0E30EC00F0690E30EC42
:1026C00000F06E0E30EC00F05750310FE96E020E44
:1026D000EA6AEA228BC0EFFFE7EC1FF05750310F98
:1026E000E96E020EEA6AEA22EFCF8BF0B9EC46F00F
:1026F00012001E0E576E556A780E546E050E566EF9
:10270000FE0E30EC00F0010E30EC00F0FE0E30EC6E
:1027100000F0800E30EC00F0420E30EC00F06C0E59
:1027200030EC00F0650E30EC00F0650E30EC00F09F
:10273000640E30EC00F04F0E30EC00F0750E30EC13
:1027400000F0740E30EC00F0FE0E30EC00F0C40E21
:1027500030EC00F0530E30EC00F0650E30EC00F081
:10276000630E30EC00F05750310FE96E020EEA6A4A
:10277000EA223DC0EFFFA9EC1CF05750310FE96E83
:10278000020EEA6AEA22EFCF3DF0B9EC46F0120001
:10279000160E576E010E556E480E546E010E566E93
:1027A000FE0E30EC00F0010E30EC00F0FE0E30ECCE
:1027B00000F0800E30EC00F04C0E30EC00F0690EB2
:1027C00030EC00F0660E30EC00F0650E30EC00F0FE
:1027D000FE0E30EC00F0C40E30EC00F0500E30EC89
:1027E00000F0740E30EC00F0730E30EC00F00BECE7
:1027F00022F0B9EC46F01200210E576E010E556E14
:10280000480E546E010E566EFE0E30EC00F0010EB6
:1028100030EC00F0FE0E30EC00F0800E30EC00F0FA
:102820005A0E30EC00F06F0E30EC00F06D0E30EC14
:1028300000F0200E30EC00F04C0E30EC00F0690E91
:1028400030EC00F0660E30EC00F0650E30EC00F07D
:10285000FE0E30EC00F0C40E30EC00F0500E30EC08
:1028600000F0740E30EC00F0730E30EC00F00BEC66
:1028700022F0B9EC46F01200190E576E050E556E97
:10288000FA0E546E050E566EFE0E30EC00F0010E80
:1028900030EC00F0FE0E30EC00F0800E30EC00F07A
:1028A000410E30EC00F0720E30EC00F06D0E30ECAA
:1028B00000F0720E30EC00F0200E30EC00F04D0E07
:1028C00030EC00F0610E30EC00F0780E30EC00F0EF
:1028D0005750310FE96E020EEA6AEA227CC0EFFF20
:1028E000A9EC1CF05750310FE96E020EEA6AEA2299
:1028F000EFCF7CF0B9EC46F01200170E576E010EC8
:10290000556E640E546E010E566EFE0E30EC00F0E5
:10291000010E30EC00F0FE0E30EC00F0800E30ECDA
:1029200000F0410E30EC00F0720E30EC00F06D0E55
:1029300030EC00F0720E30EC00F0200E30EC00F0C5
:102940004D0E30EC00F0690E30EC00F06E0E30EC05
:1029500000F0FE0E30EC00F0C40E30EC00F0500E33
:1029600030EC00F0740E30EC00F0730E30EC00F040
:102970005750310FE96E020EEA6AEA2272C0EFFF89
:10298000A9EC1CF05750310FE96E020EEA6AEA22F8
:10299000EFCF72F0B9EC46F012000D0E576E556A8B
:1029A0005468050E566EFE0E30EC00F0010E30EC51
:1029B00000F0FE0E30EC00F0800E30EC00F04D0E1A
:1029C00030EC00F0610E30EC00F0670E30EC00F0FF
:1029D000200E30EC00F0530E30EC00F0690E30ECBD
:1029E00000F07A0E30EC00F0650E30EC00F0FE0ED8
:1029F00030EC00F0C40E30EC00F0520E30EC00F081
:102A00006E0E30EC00F0640E30EC00F0730E30EC23
:102A100000F0040046500108D8A418EF15F05750F4
:102A2000310FE96E020EEA6AEA22EF6A20EF15F032
:102A30005750310FE96E020EEA6AEA2246C0EFFFF4
:102A4000FEEC1EF05750310FE96E020EEA6AEA22E0
:102A5000EFCF14F0040014500008D8A434EF15F0A0
:102A6000010E466E3CEF15F05750310FE96E020E25
:102A7000EA6AEA22EFCF46F0B9EC46F01200FE0E09
:102A800030EC00F0010E30EC00F00E0E576E020E2E
:102A9000556EC80E546E020E566EFE0E30EC00F0EF
:102AA000800E30EC00F04D0E30EC00F0610E30EC9A
:102AB00000F0670E30EC00F0730E30EC00F0575071
:102AC000310FE96E020EEA6AEA2239C0EFFFA9EC83
:102AD0001CF05750310FE96E020EEA6AEA22EFCF7E
:102AE00039F0B9EC46F01200FE0E30EC00F0010EA9
:102AF00030EC00F0030E576E556A050E546E010E51
:102B0000566EFE0E30EC00F0800E30EC00F0560EEB
:102B100030EC00F06F0E30EC00F06C0E30EC00F09A
:102B2000750E30EC00F06D0E30EC00F0650E30EC00
:102B300000F02CEC1CF05750310FE96E020EEA6ADF
:102B4000EA2252C0EFFFB9EC46F012000C0E576EAD
:102B5000556A0F0E546E010E566EFE0E30EC00F0EC
:102B6000010E30EC00F0FE0E30EC00F0800E30EC88
:102B700000F0440E30EC00F0610E30EC00F06D0E11
:102B800030EC00F0610E30EC00F0670E30EC00F03D
:102B9000650E30EC00F0FE0E30EC00F0C40E30ECB0
:102BA00000F0500E30EC00F0740E30EC00F0730EBC
:102BB00030EC00F05750310FE96E020EEA6AEA225B
:102BC0004DC0EFFF56EC21F05750310FE96E020E69
:102BD000EA6AEA22EFCF4DF0B9EC46F01200090E96
:102BE000576E556A0F0E546E010E566EFE0E30EC87
:102BF00000F0010E30EC00F0FE0E30EC00F0800E24
:102C000030EC00F0530E30EC00F0520E30EC00F0DF
:102C10004B0E30EC00F0640E30EC00F0610E30EC46
:102C200000F06D0E30EC00F0610E30EC00F0670E3D
:102C300030EC00F0FE0E30EC00F0C40E30EC00F092
:102C4000500E30EC00F0740E30EC00F0730E30ECEF
:102C500000F05750310FE96E020EEA6AEA2278C09E
:102C6000EFFF56EC21F05750310FE96E020EEA6A81
:102C7000EA22EFCF78F0B9EC46F01200220E576E40
:102C8000556A0F0E546E010E566EFE0E30EC00F0BB
:102C9000010E30EC00F0FE0E30EC00F0800E30EC57
:102CA00000F05A0E30EC00F06F0E30EC00F06D0EBC
:102CB00030EC00F0200E30EC00F0440E30EC00F070
:102CC000610E30EC00F06D0E30EC00F0670E30EC71
:102CD00000F0FE0E30EC00F0C40E30EC00F0500EB0
:102CE00030EC00F0740E30EC00F0730E30EC00F0BD
:102CF0005750310FE96E020EEA6AEA224DC0EFFF2B
:102D000056EC21F05750310FE96E020EEA6AEA22C2
:102D1000EFCF4DF0B9EC46F01200FE0E30EC00F0B3
:102D2000010E30EC00F0FE0E30EC00F0800E30ECC6
:102D300000F0520E30EC00F0610E30EC00F06E0E40
:102D400030EC00F0670E30EC00F0650E30EC00F077
:102D500045C26AF08A6BD5EF16F0FE0E30EC00F03B
:102D6000010E30EC00F0FE0E30EC00F0800E30EC86
:102D700000F0530E30EC00F0520E30EC00F04B0E31
:102D800030EC00F0720E30EC00F0610E30EC00F030
:102D90006E0E30EC00F0670E30EC00F0650E30EC9B
:102DA00000F03BC26AF0010E8A6F04006A5000080E
:102DB000D8A4EDEF16F0FE0E30EC00F0C20E30ECB1
:102DC00000F04D0E30EC00F0490E30EC00F04E0EED
:102DD00030EC00F0200E30EC00F004006A500108E6
:102DE000D8A405EF17F0FE0E30EC00F0C20E30EC68
:102DF00000F0310E30EC00F0300E30EC00F0200E20
:102E000030EC00F0250E30EC00F004006A500208AF
:102E1000D8A41DEF17F0FE0E30EC00F0C20E30EC1F
:102E200000F0320E30EC00F0300E30EC00F0200EEE
:102E300030EC00F0250E30EC00F004006A5003087E
:102E4000D8A435EF17F0FE0E30EC00F0C20E30ECD7
:102E500000F0340E30EC00F0300E30EC00F0200EBC
:102E600030EC00F0250E30EC00F004006A5004084D
:102E7000D8A44DEF17F0FE0E30EC00F0C20E30EC8F
:102E800000F0360E30EC00F0300E30EC00F0200E8A
:102E900030EC00F0250E30EC00F004006A5005081C
:102EA000D8A465EF17F0FE0E30EC00F0C20E30EC47
:102EB00000F0380E30EC00F0300E30EC00F0200E58
:102EC00030EC00F0250E30EC00F004006A500608EB
:102ED000D8A47DEF17F0FE0E30EC00F0C20E30ECFF
:102EE00000F04D0E30EC00F0410E30EC00F0580ECA
:102EF00030EC00F0200E30EC00F0C80E18EC01F0C1
:102F0000810E1A6E0F0E1C6E100E186E0E6A0C6873
:102F10000A0E0D6E010E0F6E33500DEC00F0336E85
:102F2000D8B0A7EF17F0810E1A6E0F0E1C6E800E30
:102F3000186E0E6A0C680A0E0D6E010E0F6E34507C
:102F40000DEC00F0346ED8B0C4EF17F0D9D76A2A70
:102F500004006A500708D8A4AFEF17F06A6A0400AB
:102F60008A510008D8A4BDEF17F06AC045F249ECB9
:102F700047F06BC068F0C3EF17F06AC03BF249EC52
:102F800047F06BC079F011D7B9EC46F01200FE0E95
:102F900030EC00F0010E30EC00F0FE0E30EC00F0F2
:102FA000800E30EC00F0530E30EC00F0650E30EC8B
:102FB00000F06C0E30EC00F0650E30EC00F0630EAB
:102FC00030EC00F0740E30EC00F06F0E30EC00F0DE
:102FD000720E30EC00F0040045500008D8A40FEF4A
:102FE00018F0FE0E30EC00F0C00E30EC00F0530E86
:102FF00030EC00F0650E30EC00F06D0E30EC00F0BF
:10300000690E30EC00F0410E30EC00F0750E30EC43
:1030100000F0740E30EC00F06F0E30EC00F00400A5
:1030200045500108D8A433EF18F0FE0E30EC00F044
:10303000C00E30EC00F0420E30EC00F0750E30ECBB
:1030400000F0720E30EC00F0730E30EC00F0740EF5
:1030500030EC00F0200E30EC00F0200E30EC00F0F0
:10306000200E30EC00F0040045500208D8A457EFC1
:1030700018F0FE0E30EC00F0C00E30EC00F0460E02
:1030800030EC00F0750E30EC00F06C0E30EC00F01F
:103090006C0E30EC00F0410E30EC00F0750E30ECB0
:1030A00000F0740E30EC00F06F0E30EC00F0C80E43
:1030B00018EC01F0810E1A6E0F0E1C6E100E186EB9
:1030C0000E6A0C680A0E0D6E010E0F6E33500DEC79
:1030D00000F0336ED8B081EF18F0810E1A6E0F0E2B
:1030E0001C6E800E186E0E6A0C680A0E0D6E010EB4
:1030F0000F6E34500DEC00F0346ED8B08EEF18F037
:10310000D9D7040045500208D8A48AEF18F0456AC0
:103110008BEF18F0452A45C040F25DD7B9EC46F078
:103120001200040045500108D8A4E6EF18F0100E74
:10313000576E010E556E060E546E010E566EFE0E43
:1031400030EC00F0010E30EC00F0FE0E30EC00F040
:10315000800E30EC00F0420E30EC00F0750E30ECDA
:1031600000F0720E30EC00F0730E30EC00F0740ED4
:1031700030EC00F0200E30EC00F0580E30EC00F097
:10318000FE0E30EC00F0C40E30EC00F0520E30ECCD
:1031900000F06E0E30EC00F0640E30EC00F0730EB8
:1031A00030EC00F05750310FE96E020EEA6AEA2265
:1031B00032C0EFFFA9EC1CF05750310FE96E020E40
:1031C000EA6AEA22EFCF32F0B9EC46F01200110EB3
:1031D000576E556A090E546E010E566EFE0E30EC97
:1031E00000F0010E30EC00F0FE0E30EC00F0800E2E
:1031F00030EC00F0520E30EC00F06E0E30EC00F0CF
:10320000640E30EC00F0730E30EC00F02F0E30EC5A
:1032100000F04D0E30EC00F0690E30EC00F06E0E58
:1032200030EC00F0C1EC22F0B9EC46F01200040ED4
:10323000576E556AF00E546E1E0E566EFE0E30EC32
:1032400000F0010E30EC00F0FE0E30EC00F0800ECD
:1032500030EC00F04B0E30EC00F0690E30EC00F07A
:103260006C0E30EC00F06C0E30EC00F0200E30EC08
:1032700000F04C0E30EC00F0450E30EC00F0440E47
:1032800030EC00F0FE0E30EC00F0C40E30EC00F03C
:10329000530E30EC00F0650E30EC00F0630E30ECB5
:1032A00000F05750310FE96E020EEA6AEA224EC072
:1032B000EFFF5CEC1DF05750310FE96E020EEA6A29
:1032C000EA22EFCF4EF0B9EC46F01200120E576E24
:1032D000556A1E0E546E010E566EFE0E30EC00F056
:1032E000010E30EC00F0FE0E30EC00F0800E30EC01
:1032F00000F0520E30EC00F0650E30EC00F06C0E79
:1033000030EC00F06F0E30EC00F0610E30EC00F0AD
:10331000640E30EC00F0FE0E30EC00F0C40E30EC29
:1033200000F0530E30EC00F0650E30EC00F0630E50
:1033300030EC00F05750310FE96E020EEA6AEA22D3
:103340006DC0EFFFA9EC1CF05750310FE96E020E73
:10335000EA6AEA22EFCF6DF0B9EC46F01200FE0EF9
:1033600030EC00F0010E30EC00F0FE0E30EC00F01E
:10337000800E30EC00F04D0E30EC00F0750E30ECAD
:1033800000F07A0E30EC00F0460E30EC00F06C0EDF
:1033900030EC00F0610E30EC00F0730E30EC00F019
:1033A000680E30EC00F038B01F8638A01F96A6ECEF
:1033B00020F01FB638801FA63890B9EC46F01200F6
:1033C000FE0E30EC00F0010E30EC00F0FE0E30ECA2
:1033D00000F0800E30EC00F0570E30EC00F0650E7F
:1033E00030EC00F0610E30EC00F0700E30EC00F0CC
:1033F000200E30EC00F0520E30EC00F06F0E30EC8E
:1034000000F0520E30EC00F04AB61F864AA61F9616
:10341000FEEC20F01FB64A861FA64A96B9EC46F08D
:103420001200FE0E30EC00F0010E30EC00F0FE0E4B
:1034300030EC00F0800E30EC00F0410E30EC00F08B
:103440006D0E30EC00F06D0E30EC00F06F0E30ECD5
:1034500000F0200E30EC00F0520E30EC00F06F0E59
:1034600030EC00F0520E30EC00F049BC1F8649AC45
:103470001F96FEEC20F01FB6498C1FA6499CB9ECA4
:1034800046F01200FE0E30EC00F0010E30EC00F0C1
:10349000FE0E30EC00F0800E30EC00F0470E30EC09
:1034A00000F0420E30EC00F06F0E30EC00F0780EC1
:1034B00030EC00F0200E30EC00F0520E30EC00F05A
:1034C0006F0E30EC00F0520E30EC00F048BC1F865E
:1034D00048AC1F96FEEC20F01FB6488C1FA6489CF7
:1034E000B9EC46F01200FE0E30EC00F0010E30ECAC
:1034F00000F0FE0E30EC00F0800E30EC00F0470ED5
:1035000030EC00F0420E30EC00F06F0E30EC00F0CA
:10351000780E30EC00F0530E30EC00F0740E30EC0E
:1035200000F0610E30EC00F0790E30EC00F048BE97
:103530001F8648AE1F96FEEC20F01FB6488E1FA6D1
:10354000489EB9EC46F01200FE0E30EC00F0010E81
:1035500030EC00F0FE0E30EC00F0800E30EC00F0AD
:10356000460E30EC00F06C0E30EC00F0610E30ECEA
:1035700000F0670E30EC00F0200E30EC00F0450E4D
:1035800030EC00F06E0E30EC00F0640E30EC00F029
:1035900049BA1F8649AA1F96FEEC20F01FB6498A39
:1035A0001FA6499AB9EC46F01200FE0E30EC00F06E
:1035B000010E30EC00F0FE0E30EC00F0800E30EC2E
:1035C00000F0520E30EC00F0730E30EC00F0700E94
:1035D00030EC00F0460E30EC00F06C0E30EC00F0F9
:1035E000610E30EC00F0730E30EC00F0680E30EC41
:1035F00000F048B81F8648A81F96A6EC20F01FB61A
:1036000048881FA64898B9EC46F01200FE0E30EC30
:1036100000F0010E30EC00F0FE0E30EC00F0800EF9
:1036200030EC00F05A0E30EC00F06F0E30EC00F091
:103630006D0E30EC00F0460E30EC00F06C0E30EC0D
:1036400000F0610E30EC00F0730E30EC00F0680E0C
:1036500030EC00F049B61F8649A61F96A6EC20F074
:103660001FB649861FA64996B9EC46F01200FE0E19
:1036700030EC00F0010E30EC00F0FE0E30EC00F00B
:10368000800E30EC00F0460E30EC00F06C0E30ECAA
:1036900000F0670E30EC00F0460E30EC00F06C0EDF
:1036A00030EC00F0610E30EC00F0730E30EC00F006
:1036B000680E30EC00F048BA1F8648AA1F96A6ECA8
:1036C00020F01FB6488A1FA6489AB9EC46F01200AF
:1036D000FE0E30EC00F0010E30EC00F0FE0E30EC8F
:1036E00000F0800E30EC00F04E0E30EC00F0650E75
:1036F00030EC00F0610E30EC00F0720E30EC00F0B7
:103700004D0E30EC00F0690E30EC00F0730E30EC32
:1037100000F0730E30EC00F049B81F8649A81F96E0
:10372000A6EC20F01FB649881FA64998B9EC46F0D0
:103730001200FE0E30EC00F0010E30EC00F0FE0E38
:1037400030EC00F0800E30EC00F0440E30EC00F075
:10375000750E30EC00F0610E30EC00F06C0E30ECC9
:1037600000F0200E30EC00F04D0E30EC00F0750E45
:1037700030EC00F07A0E30EC00F04ABE1F864AAE04
:103780001F96A6EC20F01FB64A8E1FA64A9EB9ECE3
:1037900046F01200FE0E30EC00F0010E30EC00F0AE
:1037A000FE0E30EC00F0800E30EC00F05A0E30ECE3
:1037B00000F06F0E30EC00F06D0E30EC00F0530EA8
:1037C00030EC00F06F0E30EC00F0750E30EC00F0D5
:1037D0006E0E30EC00F0640E30EC00F04ABC1F8638
:1037E0004AAC1F96A6EC20F01FB64A8C1FA64A9C36
:1037F000B9EC46F01200FE0E30EC00F0010E30EC99
:1038000000F0FE0E30EC00F0800E30EC00F05A0EAE
:1038100030EC00F06F0E30EC00F06D0E30EC00F08C
:10382000200E30EC00F04D0E30EC00F06F0E30EC5E
:1038300000F0640E30EC00F0650E30EC00F048B2A1
:103840001F8648A21F96A6EC20F01FB648821FA62E
:103850004892B9EC46F01200FE0E30EC00F0C00EBB
:1038600030EC00F0020E0B6E52C006F0076A5E0EDE
:10387000126E136AD9EC00F0C80E18EC01F0810E3C
:103880001A6E0F0E1C6E100E186E0E6A0A0E0C6E5B
:103890000A0E0D6E010E0F6E33500DEC00F0336EFC
:1038A000D8B07CEF1CF0810E1A6E0F0E1C6E200E2D
:1038B000186E0E6A0A0E0C6E0A0E0D6E010E0F6E59
:1038C00033500DEC00F0336ED8B08CEF1CF0810E4D
:1038D0001A6E0F0E1C6E800E186E0E6A0C680A0EA1
:1038E0000D6E010E0F6E34500DEC00F0346ED8B03A
:1038F0007BEF1CF0C4D712005650522604005250E1
:10390000545CD8A09FEF1CF054EC4EF0640E18EC01
:1039100001F0C0EC4DF0A0D704005250555CD8A483
:1039200095EF1CF054C052F097D75650525E54ECAD
:103930004EF0640E18EC01F0C0EC4DF08DD755C080
:1039400052F054EC4EF0640E18EC01F0C0EC4DF067
:1039500083D7FE0E30EC00F0C00E30EC00F0030E0A
:103960000B6E5750310FE96E020EEA6AEA22EFCF72
:1039700014F014C006F0076A5E0E126E136AD9ECDA
:1039800000F0C80E18EC01F0810E1A6E0F0E1C6EBE
:10399000100E186E0E6A0A0E0C6E0A0E0D6E010ED7
:1039A0000F6E33500DEC00F0336ED8B001EF1DF008
:1039B000810E1A6E0F0E1C6E200E186E0E6A0A0E05
:1039C0000C6E0A0E0D6E010E0F6E33500DEC00F0F2
:1039D000336ED8B025EF1DF0810E1A6E0F0E1C6EDF
:1039E000800E186E0E6A0C680A0E0D6E010E0F6EB8
:1039F00034500DEC00F0346ED8B000EF1DF0C4D799
:103A000012005750310FE96E020EEA6AEA22EFCF38
:103A100014F014505624146E156A15365750310F91
:103A2000E96E020EEA6AEA2214C0EFFF5750310F26
:103A3000E96E020EEA6AEA22EFCF14F00400145095
:103A4000545CD8A053EF1DF084D75750310FE96E66
:103A5000020EEA6AEA22EFCF14F004001450555C1B
:103A6000D8A43CEF1DF05750310FE96E020EEA6A00
:103A7000EA2254C0EFFF6DD75750310FE96E020EA6
:103A8000EA6AEA22EFCF14F05650145C146E156AFD
:103A9000D8A015065750310FE96E020EEA6AEA22E5
:103AA00014C0EFFF56D75750310FE96E020EEA6A85
:103AB000EA2255C0EFFF4DD7FE0E30EC00F0C00EED
:103AC00030EC00F0030E0B6E5750310FE96E020E12
:103AD000EA6AEA22EFCF14F014C006F0076A5E0E1D
:103AE000126E136AD9EC00F05750310FE96E020ED6
:103AF000EA6AEA22EFCF14F0040014500008D8A4B8
:103B000091EF1DF0FE0E30EC00F0C00E30EC00F036
:103B10004F0E30EC00F0660E30EC00F0660E30EC2C
:103B200000F0C80E18EC01F0810E1A6E0F0E1C6E1C
:103B3000100E186E0E6A0A0E0C6E0A0E0D6E010E35
:103B40000F6E33500DEC00F0336ED8B0D1EF1DF096
:103B5000810E1A6E0F0E1C6E200E186E0E6A0A0E63
:103B60000C6E0A0E0D6E010E0F6E33500DEC00F050
:103B7000336ED8B0F5EF1DF0810E1A6E0F0E1C6E6D
:103B8000800E186E0E6A0C680A0E0D6E010E0F6E16
:103B900034500DEC00F0346ED8B0D0EF1DF0C4D727
:103BA00012005750310FE96E020EEA6AEA22EFCF97
:103BB00014F004001450545CD8B423EF1EF0575096
:103BC000310FE96E020EEA6AEA22EFCF14F01450C8
:103BD0005624146E156A15365750310FE96E020ED1
:103BE000EA6AEA2214C0EFFF67D75750310FE96E37
:103BF000020EEA6AEA22EFCF14F004001450555C7A
:103C0000D8A40CEF1EF05750310FE96E020EEA6A8D
:103C1000EA2254C0EFFF50D75750310FE96E020E21
:103C2000EA6AEA22EFCF14F05650145C146E156A5B
:103C3000D8A015065750310FE96E020EEA6AEA2243
:103C400014C0EFFF39D75750310FE96E020EEA6A00
:103C5000EA2255C0EFFF30D75750310FE96E020E00
:103C6000EA6AEA22EFCF14F0040014501A08D8A42C
:103C70004BEF1EF0FE0E30EC00F0C00E30EC00F00A
:103C8000550E30EC00F04E0E30EC00F04C0E30ECE7
:103C900000F063EF1EF0FE0E30EC00F0C00E30ECD2
:103CA00000F0030E0B6E5750310FE96E020EEA6AF8
:103CB000EA22EFCF14F014C006F0076A5E0E126E0F
:103CC000136AD9EC00F0C80E18EC01F0810E1A6EE0
:103CD0000F0E1C6E100E186E0E6A0A0E0C6E0A0E77
:103CE0000D6E010E0F6E33500DEC00F0336ED8B038
:103CF000A3EF1EF0810E1A6E0F0E1C6E200E186EB2
:103D00000E6A0A0E0C6E0A0E0D6E010E0F6E335007
:103D10000DEC00F0336ED8B0C7EF1EF0810E1A6EB6
:103D20000F0E1C6E800E186E0E6A0C680A0E0D6E59
:103D3000010E0F6E34500DEC00F0346ED8B0A2EFCF
:103D40001EF0C4D712005750310FE96E020EEA6A16
:103D5000EA22EFCF14F014505624146E156A15366B
:103D60005750310FE96E020EEA6AEA2214C0EFFFE3
:103D70005750310FE96E020EEA6AEA22EFCF14F0D3
:103D800004001450545CD8A0F5EF1EF065D75750CE
:103D9000310FE96E020EEA6AEA22EFCF14F0040056
:103DA0001450555CD8A4DEEF1EF05750310FE96E69
:103DB000020EEA6AEA2254C0EFFF4ED75750310F85
:103DC000E96E020EEA6AEA22EFCF14F05650145C54
:103DD000146E156AD8A015065750310FE96E020E01
:103DE000EA6AEA2214C0EFFF37D75750310FE96E65
:103DF000020EEA6AEA2255C0EFFF2ED7FE0E30EC23
:103E000000F0C00E30EC00F05750310FE96E020E9A
:103E1000EA6AEA22EFCF14F0040014500008D8A494
:103E20001DEF1FF0300E30EC00F0300E30EC00F0E3
:103E3000310E30EC00F02FEF1FF0030E0B6E5750D9
:103E4000310FE96E020EEA6AEA22EFCF14F014C0D5
:103E500006F0076A5E0E126E136AD9EC00F0575036
:103E6000310FE96E020EEA6AEA22EFCF14F0040085
:103E70001450FF08D8A44CEF1FF0FE0E30EC00F0F9
:103E8000C00E30EC00F0550E30EC00F04E0E30EC71
:103E900000F04C0E30EC00F0C80E18EC01F0810E72
:103EA0001A6E0F0E1C6E100E186E0E6A0A0E0C6E35
:103EB0000A0E0D6E010E0F6E33500DEC00F0336ED6
:103EC000D8B08CEF1FF0810E1A6E0F0E1C6E200EF4
:103ED000186E0E6A0A0E0C6E0A0E0D6E010E0F6E33
:103EE00033500DEC00F0336ED8B0B0EF1FF0810E00
:103EF0001A6E0F0E1C6E800E186E0E6A0C680A0E7B
:103F00000D6E010E0F6E34500DEC00F0346ED8B013
:103F10008BEF1FF0C4D712005750310FE96E020E1D
:103F2000EA6AEA22EFCF14F004001450545CD8B4CB
:103F3000DEEF1FF05750310FE96E020EEA6AEA22F7
:103F4000EFCF14F014505624146E156A15365750DE
:103F5000310FE96E020EEA6AEA2214C0EFFF4ED773
:103F60005750310FE96E020EEA6AEA22EFCF14F0E1
:103F700004001450555CD8A4C7EF1FF05750310F00
:103F8000E96E020EEA6AEA2254C0EFFF37D75750B3
:103F9000310FE96E020EEA6AEA22EFCF14F05650B2
:103FA000145C146E156AD8A015065750310FE96ECF
:103FB000020EEA6AEA2214C0EFFF20D75750310FF1
:103FC000E96E020EEA6AEA2255C0EFFF17D7FE0E2D
:103FD00030EC00F0C00E30EC00F0030E0B6E5750CA
:103FE000310FE96E020EEA6AEA22EFCF14F014C034
:103FF00006F0076A5E0E126E136AD9EC00F0200E0E
:1040000030EC00F06D0E30EC00F0690E30EC00F09A
:104010006E0E30EC00F0C80E18EC01F0810E1A6E36
:104020000F0E1C6E100E186E0E6A0A0E0C6E0A0E23
:104030000D6E010E0F6E33500DEC00F0336ED8B0E4
:104040004BEF20F0810E1A6E0F0E1C6E200E186EB4
:104050000E6A0A0E0C6E0A0E0D6E010E0F6E3350B4
:104060000DEC00F0336ED8B06FEF20F0810E1A6EB9
:104070000F0E1C6E800E186E0E6A0C680A0E0D6E06
:10408000010E0F6E34500DEC00F0346ED8B04AEFD4
:1040900020F0C4D712005750310FE96E020EEA6AC1
:1040A000EA22EFCF14F014505624146E156A153618
:1040B0005750310FE96E020EEA6AEA2214C0EFFF90
:1040C0005750310FE96E020EEA6AEA22EFCF14F080
:1040D00004001450545CD8A09DEF20F078D75750BE
:1040E000310FE96E020EEA6AEA22EFCF14F0040003
:1040F0001450555CD8A486EF20F05750310FE96E6C
:10410000020EEA6AEA2254C0EFFF61D75750310F1E
:10411000E96E020EEA6AEA22EFCF14F05650145C00
:10412000146E156AD8A015065750310FE96E020EAD
:10413000EA6AEA2214C0EFFF4AD75750310FE96EFE
:10414000020EEA6AEA2255C0EFFF41D704001FA61B
:10415000BBEF20F0FE0E30EC00F0C00E30EC00F0B3
:104160004F0E30EC00F06E0E30EC00F0200E30EC14
:1041700000F0CAEF20F0FE0E30EC00F0C00E30EC84
:1041800000F04F0E30EC00F0660E30EC00F0660EE2
:1041900030EC00F0C80E18EC01F0810E1A6E0F0E14
:1041A0001C6E100E186E0E6A0C680A0E0D6E010E53
:1041B0000F6E33500DEC00F0336ED8B0F5EF20F0F9
:1041C000810E1A6E0F0E1C6E800E186E0E6A0C6831
:1041D0000A0E0D6E010E0F6E34500DEC00F0346EB1
:1041E000D8B0F4EF20F0D9D7120004001FA6FCEFDE
:1041F00020F01F96FDEF20F01F86A8D704001FA611
:1042000013EF21F0FE0E30EC00F0C00E30EC00F0A9
:10421000590E30EC00F0650E30EC00F0730E30EC0F
:1042200000F022EF21F0FE0E30EC00F0C00E30EC7A
:1042300000F04E0E30EC00F06F0E30EC00F0200E6F
:1042400030EC00F0C80E18EC01F0810E1A6E0F0E63
:104250001C6E100E186E0E6A0C680A0E0D6E010EA2
:104260000F6E33500DEC00F0336ED8B04DEF21F0EF
:10427000810E1A6E0F0E1C6E800E186E0E6A0C6880
:104280000A0E0D6E010E0F6E34500DEC00F0346E00
:10429000D8B04CEF21F0D9D7120004001FA654EF7C
:1042A00021F01F9655EF21F01F86A8D75750310FE8
:1042B000E96E020EEA6AEA22EFCF86F067EC47F079
:1042C000FE0E30EC00F0C00E30EC00F0030E0B6E72
:1042D0001EC106F0076A5E0E126E136AD9EC00F07A
:1042E000C80E18EC01F0810E1A6E0F0E1C6E100E27
:1042F000186E0E6A0A0E0C6E0A0E0D6E010E0F6E0F
:1043000033500DEC00F0336ED8B0B0EF21F0810ED9
:104310001A6E0F0E1C6E200E186E0E6A0A0E0C6EB0
:104320000A0E0D6E010E0F6E33500DEC00F0336E61
:10433000D8B0D4EF21F0810E1A6E0F0E1C6E800ED5
:10434000186E0E6A0C680A0E0D6E010E0F6E345058
:104350000DEC00F0346ED8B0AFEF21F0C4D71200EE
:104360005750310FE96E020EEA6AEA22EFCF14F0DD
:1043700014505624146E156A15365750310FE96ED5
:10438000020EEA6AEA2214C0EFFF5750310FE96EBD
:10439000020EEA6AEA22EFCF14F004001450545CD3
:1043A000D8A002EF22F082D75750310FE96E020EEB
:1043B000EA6AEA22EFCF14F004001450555CD8A446
:1043C000EBEF21F05750310FE96E020EEA6AEA2254
:1043D00054C0EFFF6BD75750310FE96E020EEA6AF7
:1043E000EA22EFCF14F05650145C146E156AD8A070
:1043F00015065750310FE96E020EEA6AEA2214C020
:10440000EFFF54D75750310FE96E020EEA6AEA22E5
:1044100055C0EFFF4BD75750310FE96E020EEA6AD5
:10442000EA22EFCF86F0B2EC47F0FE0E30EC00F05F
:10443000C00E30EC00F0030E0B6E26C006F027C055
:1044400007F05E0E126E136AD9EC00F0C80E18EC7D
:1044500001F0810E1A6E0F0E1C6E100E186E0E6A91
:104460000A0E0C6E0A0E0D6E010E0F6E33500DEC1F
:1044700000F0336ED8B066EF22F0810E1A6E0F0E88
:104480001C6E200E186E0E6A0A0E0C6E0A0E0D6E51
:10449000010E0F6E33500DEC00F0336ED8B08AEF82
:1044A00022F0810E1A6E0F0E1C6E800E186E0E6AB0
:1044B0000C680A0E0D6E010E0F6E34500DEC00F0FC
:1044C000346ED8B065EF22F0C4D712005750310FC8
:1044D000E96E020EEA6AEA22EFCF14F01450562475
:1044E000146E156A15365750310FE96E020EEA6ADE
:1044F000EA2214C0EFFF5750310FE96E020EEA6A4C
:10450000EA22EFCF14F004001450545CD8A0B8EFA6
:1045100022F081D75750310FE96E020EEA6AEA2283
:10452000EFCF14F004001450555CD8A4A1EF22F092
:104530005750310FE96E020EEA6AEA2254C0EFFFCB
:104540006AD75750310FE96E020EEA6AEA22EFCFBE
:1045500014F05650145C146E156AD8A01506575006
:10456000310FE96E020EEA6AEA2214C0EFFF53D758
:104570005750310FE96E020EEA6AEA2255C0EFFF8A
:104580004AD75750310FE96E020EEA6AEA22EFCF9E
:1045900086F08EEC47F004003B50E608D8A4ECEF20
:1045A00022F0FE0E30EC00F0C00E30EC00F0200ED9
:1045B00030EC00F0360E30EC00F0300E30EC00F055
:1045C000200E30EC00F0520E30EC00F0500E30ECCB
:1045D00000F04D0E30EC00F004003B50AE08D8A4C3
:1045E0000DEF23F0FE0E30EC00F0C00E30EC00F0CA
:1045F000320E30EC00F0350E30EC00F0300E30ECC6
:1046000000F0200E30EC00F0520E30EC00F0500EB6
:1046100030EC00F04D0E30EC00F004003B5086080A
:10462000D8A42EEF23F0FE0E30EC00F0C00E30ECDC
:1046300000F0330E30EC00F0300E30EC00F0300EB5
:1046400030EC00F0200E30EC00F0520E30EC00F0B8
:10465000500E30EC00F04D0E30EC00F004003B50FA
:104660006E08D8A44FEF23F0FE0E30EC00F0C00E21
:1046700030EC00F0330E30EC00F0350E30EC00F092
:10468000300E30EC00F0200E30EC00F0520E30EC2A
:1046900000F0500E30EC00F04D0E30EC00F0040055
:1046A0003B505E08D8A470EF23F0FE0E30EC00F013
:1046B000C00E30EC00F0340E30EC00F0300E30EC78
:1046C00000F0300E30EC00F0200E30EC00F0520E16
:1046D00030EC00F0500E30EC00F04D0E30EC00F0FD
:1046E00004003B504A08D8A491EF23F0FE0E30ECB2
:1046F00000F0C00E30EC00F0340E30EC00F0350E5F
:1047000030EC00F0300E30EC00F0200E30EC00F019
:10471000520E30EC00F0500E30EC00F04D0E30EC4C
:1047200000F004003B504008D8A4B2EF23F0FE0E86
:1047300030EC00F0C00E30EC00F0350E30EC00F044
:10474000300E30EC00F0300E30EC00F0200E30EC8B
:1047500000F0520E30EC00F0500E30EC00F04D0E38
:1047600030EC00F004003B503708D8A4D3EF23F01E
:10477000FE0E30EC00F0C00E30EC00F0350E30ECE8
:1047800000F0350E30EC00F0300E30EC00F0200E72
:1047900030EC00F0520E30EC00F0500E30EC00F037
:1047A0004D0E30EC00F004003B503108D8A4F4EF7B
:1047B00023F0FE0E30EC00F0C00E30EC00F0360EB0
:1047C00030EC00F0300E30EC00F0300E30EC00F049
:1047D000200E30EC00F0520E30EC00F0500E30ECB9
:1047E00000F04D0E30EC00F004003B502808D8A437
:1047F00015EF24F0FE0E30EC00F0C00E30EC00F0AF
:10480000360E30EC00F0350E30EC00F0300E30ECAF
:1048100000F0200E30EC00F0520E30EC00F0500EA4
:1048200030EC00F04D0E30EC00F004003B5022085C
:10483000D8A436EF24F0FE0E30EC00F0C00E30ECC1
:1048400000F0370E30EC00F0300E30EC00F0300E9F
:1048500030EC00F0200E30EC00F0520E30EC00F0A6
:10486000500E30EC00F04D0E30EC00F004003B50E8
:104870001D08D8A457EF24F0FE0E30EC00F0C00E57
:1048800030EC00F0370E30EC00F0350E30EC00F07C
:10489000300E30EC00F0200E30EC00F0520E30EC18
:1048A00000F0500E30EC00F04D0E30EC00F0040043
:1048B0003B501908D8A478EF24F0FE0E30EC00F03D
:1048C000C00E30EC00F0380E30EC00F0300E30EC62
:1048D00000F0300E30EC00F0200E30EC00F0520E04
:1048E00030EC00F0500E30EC00F04D0E30EC00F0EB
:1048F000C80E18EC01F0810E1A6E0F0E1C6E100E11
:10490000186E0E6A0A0E0C6E0A0E0D6E010E0F6EF8
:1049100033500DEC00F0336ED8B0B8EF24F0810EB8
:104920001A6E0F0E1C6E200E186E0E6A0A0E0C6E9A
:104930000A0E0D6E010E0F6E33500DEC00F0336E4B
:10494000D8B0DDEF24F0810E1A6E0F0E1C6E800EB3
:10495000186E0E6A0C680A0E0D6E010E0F6E345042
:104960000DEC00F0346ED8B0B7EF24F0C4D71200CD
:104970005750310FE96E020EEA6AEA22EFCF14F0C7
:1049800014505624146E156A15365750310FE96EBF
:10499000020EEA6AEA2214C0EFFF5750310FE96EA7
:1049A000020EEA6AEA22EFCF14F004001450545CBD
:1049B000D8A00DEF25F0C1EF22F05750310FE96E6E
:1049C000020EEA6AEA22EFCF14F004001450555C9C
:1049D000D8A4F5EF24F05750310FE96E020EEA6AC1
:1049E000EA2254C0EFFFC1EF22F05750310FE96EB9
:1049F000020EEA6AEA22EFCF14F05650145C146EED
:104A0000156AD8A015065750310FE96E020EEA6AF2
:104A1000EA2214C0EFFFC1EF22F05750310FE96EC8
:104A2000020EEA6AEA2255C0EFFFC1EF22F0FE0E45
:104A300030EC00F0010E30EC00F0FE0E30EC00F037
:104A4000820E30EC00F0530E30EC00F0610E30ECD2
:104A500000F0760E30EC00F0650E30EC00F0FE0E4B
:104A600030EC00F0C00E30EC00F0530E30EC00F0F3
:104A7000650E30EC00F0740E30EC00F0740E30EC8B
:104A800000F0690E30EC00F06E0E30EC00F0670EB6
:104A900030EC00F0730E30EC00F0C80E18EC01F0B2
:104AA000810E1A6E0F0E1C6E800E186E0E6A0C6848
:104AB0000A0E0D6E010E0F6E35500DEC00F0356EC6
:104AC000D8B078EF25F0810E1A6E0F0E1C6E100E06
:104AD000186E0E6A0C680A0E0D6E010E0F6E3450C1
:104AE0000DEC00F0346ED8B077EF25F0D9D7120076
:104AF000FE0E30EC00F0010E30EC00F0FE0E30EC5B
:104B000000F0810E30EC00F0530E30EC00F0610E3E
:104B100030EC00F0760E30EC00F0690E30EC00F076
:104B20006E0E30EC00F0670E30EC00F0FE0E30EC54
:104B300000F0C00E30EC00F0530E30EC00F0650ECB
:104B400030EC00F0740E30EC00F0740E30EC00F03D
:104B5000690E30EC00F06E0E30EC00F0670E30ECB9
:104B600000F0730E30EC00F0010E056E2C0E19EC07
:104B700001F051C044F24CC03CF238C046F248C08B
:104B80004BF249C04CF24AC058F2576A0400290E51
:104B9000575CD8B0DEEF25F057C0A9FF5750310F52
:104BA000E96E020EEA6AEA22EFCFA8FF22EC26F0B5
:104BB0000F0E18EC01F0572AD8A0E8D71200000E0B
:104BC000D66EF29481B005D0F2A4FCD7FF0E5A6ED7
:104BD0001200D6505A6E3AEC26F03AEC26F03AEC37
:104BE00026F03AEC26F081A0EDD71200C30ED66E67
:104BF000F29481A003D0F2A4FCD711D03AEC26F0B5
:104C00003AEC26F03AEC26F03AEC26F081B0F1D7F7
:104C1000690ED66EF29481B004D0F2A4FCD71E8047
:104C20001200D6505A6E3AEC26F03AEC26F03AECE6
:104C300026F03AEC26F081A0EED71200A69EA69CA4
:104C4000A6801200A69EA69CA684550EA76EAA0E4C
:104C5000A76EA682A69412005090C80E8E6F3AECF2
:104C600026F0000081A005D08E2FF9D7902FF5D720
:104C7000120050801200130E8E6FF2B212008E2FAF
:104C8000FCD7902FF8D71200040E8E6FF2B21200EC
:104C90008E2FFCD71200CDEC01F0CFCF8CF0CDECF5
:104CA00001F03C0E8C25CF6ECDEC01F0AF0ECE6E38
:104CB000CDEC01F09E90CDEC01F0752ACDEC01F029
:104CC000040075A07BEF26F0CDEC01F0E86A1EA889
:104CD000010FD8B41E98D8A41E88CDEC01F00400B2
:104CE0001EA879EF26F0CDEC01F01E7A309ACDECBB
:104CF00001F0CDEC01F0CDEC01F004007D50060890
:104D0000D8A491EF26F0CDEC01F0040048A88FEF75
:104D100026F0CDEC01F0817C939CCDEC01F0CDEC44
:104D200001F0CDEC01F0040075500101305D00018F
:104D3000D8A46BEF29F0CDEC01F0756ACDEC01F051
:104D40000101292B0001CDEC01F0040001012951E2
:104D50003C080001D8A4EAEF26F0CDEC01F00101F7
:104D6000282B0001CDEC01F00101296B0001CDECF5
:104D700001F004007D500008D8A4E8EF26F0CDEC47
:104D800001F004004AACE6EF26F0CDEC01F0E86A51
:104D900048B2E868146E83510008D8A4E868FF0A96
:104DA000166E14C002F0165080EC01F0166E176EED
:104DB000040016501710D8B4E4EF26F0CDEC01F043
:104DC000B6EC4DF0CDEC01F0CDEC01F0CDEC01F006
:104DD000CDEC01F0CDEC01F004007D500308D8B417
:104DE0002AEF27F0CDEC01F028C102F08B515CECEA
:104DF00001F0146E8B510008D8A4E868166E14C038
:104E000002F0165080EC01F0166E176E040016507A
:104E10001710D8B42AEF27F0CDEC01F029C125F105
:104E2000CDEC01F028C124F1CDEC01F07EEC4DF089
:104E3000CDEC01F0030E7D6ECDEC01F0626ACDEC9D
:104E400001F00101226B0001CDEC01F08EEF2DF09D
:104E5000CDEC01F0CDEC01F00101222B0001CDECF5
:104E600001F0010E026E036A056A320E40EC01F099
:104E7000146E03C015F0145001012C270001CDEC75
:104E800001F0640E7C2401010A6F0B6B0B370001EB
:104E9000CDEC01F024C002F025C003F00BC105F0F9
:104EA00001010A5100015EEC01F0D8A486EF27F061
:104EB000CDEC01F024C002F025C003F0056A640EB9
:104EC0005EEC01F0D8A470EF27F0CDEC01F0242ABD
:104ED000000E2522CDEC01F086EF27F0CDEC01F09D
:104EE000CDEC01F073502424146EE86A2520156E71
:104EF00014C002F015C003F00BC105F001010A5106
:104F0000000140EC01F0246E03C025F0CDEC01F06F
:104F100004007D500008D8A4A0EF27F0CDEC01F0EC
:104F2000040001012C5105080001D8A49EEF27F0D0
:104F3000CDEC01F047EC4CF0CDEC01F0CDEC01F004
:104F4000CDEC01F001011329146E156A1536320EED
:104F5000026E036A15C005F01450000140EC01F028
:104F60000101136F0001CDEC01F004001F0E0101DF
:104F7000135D0001D8A0C3EF27F0CDEC01F08292C1
:104F80009492CDEC01F0CDEC01F004007D500008CE
:104F9000D8A408EF28F0CDEC01F004001EA6DFEF46
:104FA00027F0CDEC01F0040048AADDEF27F0CDECAE
:104FB00001F0817C939CCDEC01F0CDEC01F0CDECC7
:104FC00001F0E86A48B2E868146E83510008D8A47A
:104FD000E868FF0A166E14C002F0165080EC01F06B
:104FE000166E176E040016501710D8B406EF28F08E
:104FF000CDEC01F0040049A604EF28F0CDEC01F05F
:10500000817C939CCDEC01F0CDEC01F0CDEC01F076
:10501000CDEC01F00400010E4E5CD8A033EF28F077
:10502000CDEC01F07D500308D8A4E868FF0A146EA7
:1050300022C102F04E5061EC01F0166E14C002F075
:10504000165080EC01F0166E176E04001650171003
:10505000D8B431EF28F0CDEC01F0819C939CCDECDD
:1050600001F0CDEC01F0CDEC01F09280CDEC01F03F
:105070000E0EC16ECDEC01F0C282CDEC01F0040049
:105080002D500208D8A4A1EF28F0CDEC01F00101C9
:10509000AF0E2D6F0001CDEC01F06EEC29F0CDECE0
:1050A00001F00400C2B2E9D7CDEC01F0C4CF17F192
:1050B000CDEC01F00F0EC16ECDEC01F09290CDEC75
:1050C00001F00400AF0E0101175D0001D8A0BCEF94
:1050D00029F0CDEC01F00400C60E0101175D0001BE
:1050E000D8B07FEF28F0CDEC01F00101020E146F73
:1050F0000001CDEC01F069EF29F0CDEC01F0CDEC31
:1051000001F00400DC0E0101175D0001D8B095EF3D
:1051100028F0CDEC01F00101010E146F0001CDEC7F
:1051200001F069EF29F0CDEC01F0CDEC01F00101C7
:10513000146B0001CDEC01F00101156B0001CDEC09
:1051400001F0CDEC01F004002D500108D8A405EFCA
:1051500029F0CDEC01F00101A50E2D6F0001CDEC81
:1051600001F06EEC29F0CDEC01F00400C2B285D75D
:10517000CDEC01F0C4CF17F1CDEC01F00F0EC16EF4
:10518000CDEC01F09290CDEC01F00400AF0E0101E6
:10519000175D0001D8A0BCEF29F0CDEC01F00400B0
:1051A000C20E0101175D0001D8B0E3EF28F0CDEC8D
:1051B00001F00101020E146F0001CDEC01F069EF66
:1051C00029F0CDEC01F0CDEC01F00400D00E01018E
:1051D000175D0001D8B0F9EF28F0CDEC01F0010126
:1051E000010E146F0001CDEC01F069EF29F0CDEC58
:1051F00001F0CDEC01F00101146B0001CDEC01F0E8
:105200000101156B0001CDEC01F0CDEC01F00400C3
:105210002D500008D8A469EF29F0CDEC01F0010170
:10522000960E2D6F0001CDEC01F06EEC29F0CDEC67
:1052300001F00400C2B221D7CDEC01F0C4CF17F1C8
:10524000CDEC01F00F0EC16ECDEC01F09290CDECE3
:1052500001F00400960E0101175D0001D8A0BCEF1B
:1052600029F0CDEC01F00400AA0E0101175D000148
:10527000D8B047EF29F0CDEC01F00101020E146F18
:105280000001CDEC01F069EF29F0CDEC01F0CDEC9F
:1052900001F00400CD0E0101175D0001D8B05DEFF3
:1052A00029F0CDEC01F00101010E146F0001CDECED
:1052B00001F069EF29F0CDEC01F0CDEC01F0010136
:1052C000146B0001CDEC01F00101156B0001CDEC78
:1052D00001F0CDEC01F0CDEC01F01200CDEC01F0CD
:1052E000020E01012D25146E156A153617C102F044
:1052F000036A15C005F0145000015EEC01F0D8A45B
:105300008CEF29F0CDEC01F00101166B0001CDEC22
:1053100001F01200CDEC01F0CDEC01F001012D51B6
:10532000175D146E156AD8A0150614C002F015C0DA
:1053300003F0040E046E056A00018CEC01F0146E9B
:1053400003C015F0026A036A15C005F014503CEC66
:1053500001F00101166F0001CDEC01F00A0E026EA2
:10536000036A0101165100013FEC01F00101166FC3
:105370000001CDEC01F01200CDEC01F00101030EB3
:10538000146F0001CDEC01F00101152B0001CDECF3
:1053900001F004000B0E0101155D0001D8A0DCEF47
:1053A00029F0CDEC01F088EC4DF0CDEC01F00101DD
:1053B000156B0001CDEC01F0CDEC01F01200CDEC4D
:1053C00001F0866B0400080E865DD8B0FEEF29F070
:1053D000CDEC01F08651000FE96E030EEA6AEA2275
:1053E000EFCF1DF1CDEC01F001011D51000130ECBA
:1053F00000F0CDEC01F0862BD8A0E4D7CDEC01F085
:105400001200CDEC01F0040048B22CEF2AF0CDECF4
:1054100001F082C008F0096A080E046E056AA4EC67
:1054200001F0876F0101760E006F570E016F0001CA
:10543000CDEC01F00101040E0027000E0123000154
:10544000CDEC01F0875101010027E86A012300013A
:10545000CDEC01F04FEF2AF0CDEC01F082C008F066
:10546000096A080E046E056AA4EC01F0876F010159
:105470009A0E006F570E016F0001CDEC01F0010193
:10548000040E0027000E01230001CDEC01F087512E
:1054900001010027E86A01230001CDEC01F0CDEC09
:1054A00001F0010E866F0400090E865DD8B077EF1B
:1054B0002AF0CDEC01F000C1F6FF01C1F7FF11ECBD
:1054C00001F001011D6F0001CDEC01F001011D5142
:1054D000000130EC00F0CDEC01F00101002B000EDA
:1054E00001230001CDEC01F0862BD8A0DCD7CDEC58
:1054F00001F01200CDEC01F0040048B2CFEF2AF029
:10550000CDEC01F082C008F0096A080E046E056A4D
:10551000A4EC01F0876F0101760E006F570E016F4A
:105520000001CDEC01F00101040E0027000E012363
:105530000001CDEC01F0875101010027E86A012349
:105540000001CDEC01F0866B0400080E865DD8B03A
:10555000CBEF2AF0CDEC01F000C1F6FF01C1F7FF5F
:1055600011EC01F001011D6F0001CDEC01F086513D
:10557000000FE96E030EEA6AEA221DC1EFFFCDECCF
:1055800001F00101002B000E01230001CDEC01F020
:10559000862BD8A0D9D7CDEC01F01CEF2BF0CDECA9
:1055A00001F082C008F0096A080E046E056AA4ECD6
:1055B00001F0876F01019A0E006F570E016F000115
:1055C000CDEC01F00101040E0027000E01230001C3
:1055D000CDEC01F0875101010027E86A01230001A9
:1055E000CDEC01F0866B0400080E865DD8B01AEF92
:1055F0002BF0CDEC01F000C1F6FF01C1F7FF11EC7B
:1056000001F001011D6F0001CDEC01F08651000F8A
:10561000E96E030EEA6AEA221DC1EFFFCDEC01F04C
:105620000101002B000E01230001CDEC01F0862BBF
:10563000D8A0D9D7CDEC01F0CDEC01F01200CDEC23
:1056400001F065C008F0096A060E046E056AA4EC54
:1056500001F001010A6F07C00BF100010101BE0E4C
:10566000006F570E016F0001CDEC01F00101040E37
:105670000027000E01230001CDEC01F001010A51C9
:1056800000270B5101230001CDEC01F0010E866FC4
:105690000400060E865DD8B06CEF2BF0CDEC01F067
:1056A00000C1F6FF01C1F7FF11EC01F001011D6F10
:1056B0000001CDEC01F001011D51000130EC00F0C2
:1056C000CDEC01F00101002B000E01230001CDEC17
:1056D00001F0862BD8A0DCD7CDEC01F01200CDEC88
:1056E00001F014C108F0096A080E046E056AA4EC02
:1056F00001F0876F0101EE0E006F580E016F00017F
:10570000CDEC01F00101040E0027000E0123000181
:10571000CDEC01F0875101010027E86A0123000167
:10572000CDEC01F0010E866F0400030E865DD8B04B
:10573000B8EF2BF0CDEC01F000C1F6FF01C1F7FF8F
:1057400011EC01F001011D6F0001CDEC01F0010130
:105750001D51000130EC00F0CDEC01F00101002BF7
:10576000000E01230001CDEC01F0862BD8A0DCD780
:10577000CDEC01F01200CDEC01F052656420202048
:105780002020426C75652020202059656C6C6F7755
:105790002020477265656E202020CDEC01F05A6F05
:1057A0006D626965202048756D616E202020496E0C
:1057B00076616C202020496E76616C202020CDEC33
:1057C00001F04561676C65004A6F6B65720052615C
:1057D00076656E00536172676500416E67656C00A7
:1057E000436F736D6F004765636B6F00426C617A46
:1057F00065004368616F7300467572792000466CDE
:1058000061736800456C76697300486F6D6572005E
:1058100053746F726D00486162697400526562650D
:105820006C00526F6E696E004C75636B790052614B
:1058300064617200426C616465004E696E6A610069
:105840004D6167696300476F6E7A6F00436F6272E4
:10585000610050617070790052616D626F00536E2B
:10586000616B6500416C69656E005374696E670019
:105870005A65656E61004275677379005669706597
:1058800072004A6577656C0047656E6965004C6F0C
:1058900067616E0052617A6F7200536C69636B00CE
:1058A00056656E6F6D00526F636B79005361626570
:1058B0007200447573747900526F6D656F004F729A
:1058C00062697400566978656E0054616E6B2000E1
:1058D000526F67756500536865696B0047697A6D3B
:1058E0006F0052696E676F00526572756E00CDEC85
:1058F00001F02B2B2020202020204F4B2020202087
:1059000020204C4F2020202020202D2D2020202022
:1059100020200201326B336B020E346F356B366B15
:10592000376B00010201460E386F000182829492AB
:10593000FE0E30EC00F0010E30EC00F0FE0E30EC0C
:1059400000F0800E30EC00F0460E30EC00F0610EFE
:1059500030EC00F0630E30EC00F0740E30EC00F030
:105960006F0E30EC00F0720E30EC00F0790E30EC7F
:1059700000F0FE0E30EC00F0C00E30EC00F0520EE5
:1059800030EC00F0650E30EC00F0730E30EC00F0FF
:10599000650E30EC00F0740E30EC00F0040E056E75
:1059A000B00E19EC01F0320E876F640E18EC01F0A6
:1059B000040081BEE4EF2CF0870704000C0E875D25
:1059C000D8B0F3D71DEF5DF082829492FE0E30ECDA
:1059D00000F0800E30EC00F04D0E30EC00F0690E5F
:1059E00030EC00F06C0E30EC00F0650E30EC00F0A6
:1059F000730E30EC00F0540E30EC00F0610E30EC21
:105A000000F0670E30EC00F0FE0E30EC00F0C00E3F
:105A100030EC00F0760E30EC00F0650E30EC00F06B
:105A2000720E30EC00F0200E30EC00F0350E30EC51
:105A300000F02E0E30EC00F0360E30EC00F0340E9C
:105A400030EC00F0030E056E200E19EC01F002019F
:105A5000316BD20EA96E0F0EA86E000122EC26F05B
:105A60000F0E18EC01F00201396B0F0E3A6F020EA7
:105A70003B6F3C6B050E3D6F280E3E6F1E0E3F6F59
:105A8000020E406F030E416F040E426F020E436F11
:105A9000010E446F040E456F090E466F240E476FCA
:105AA000010E486F496B320E4A6F340E4B6F780E01
:105AB0004C6F020E4D6F4E6B4F6B506B1A0E516F49
:105AC000380E526F050E536F020E546F320E556F23
:105AD000040E566F0A0E576F6E0E586F596B000109
